:100000000C9436000C945E000C945E000C945E0020
:100010000C945E000C945E000C945E000C945E00E8
:100020000C945E000C94160F0C945E000C945E0011
:100030000C945E000C948A070C945E000C945E0095
:100040000C945E000C945E000C945E000C945E00B8
:100050000C945E000C945E000C945E000C945E00A8
:100060000C945E000C945E00D510D61011241FBEB7
:10007000CFEFD8E0DEBFCDBF11E0A0E0B1E0E8EB0C
:10008000F8E302C005900D92A436B107D9F711E04C
:10009000A4E6B1E001C01D92AB3EB107E1F710E06C
:1000A000CAE6D0E004C02297FE010E944518C83677
:1000B000D107C9F70E946F030C94B6040C9400009A
:1000C00080912A018F5F80932A010895BC016F5FA0
:1000D0007F4F880F991F880F991F681B790B660F38
:1000E000771F675E7F4F880F991F49960E94410DC9
:1000F00087ED91E062E00E94161008950F931F9320
:10010000CF93DF939C018091DB019091DC01885EAD
:10011000934038F5C901880F991F820F931F880FEC
:10012000991F880F991F880F991F820F931F8C01A9
:1001300087EE9FEF289FE001299FD00D389FD00DBB
:100140001124C801BE010E94410D87ED91E062E0DB
:100150000E9416108091DB019091DC01885E934033
:1001600080F382E390E00E94880FDF91CF911F918E
:100170000F910895EF92FF920F931F930E94C20F69
:100180007B018C018091DB019091DC01885E9340C2
:10019000A0F064C089E190E067EE7FEF0E94410D1E
:1001A00087ED91E062E00E9416108091DB01909152
:1001B000DC01885E934008F051C00E94C20F6E19A6
:1001C0007F09800B910B605B74408040904010F37E
:1001D0008091DB019091DC01885E934008F03EC085
:1001E0000E94C20F7B018C018091DB019091DC01A8
:1001F000885E934098F032C087EE9FEF69E170E02F
:100200000E94410D87ED91E062E00E9416108091FE
:10021000DB019091DC01885E934000F50E94C20FE3
:100220006E197F09800B910B605679408040904099
:1002300018F38091DB019091DC01885E934070F4AB
:1002400080E090E060E070E00E94410D20E030E04E
:10025000C9011F910F91FF90EF90089582E390E004
:100260000E94880F80E090E060E070E00E94410D05
:1002700021E030E0C9011F910F91FF90EF900895A8
:10028000EF92FF920F931F93CF93DF930E949609F3
:1002900000D000E011E0EDB7FEB7128301830E94A9
:1002A0009A190F900F9080E061E00E94840A00D0BC
:1002B00087E091E0EDB7FEB7928381830E949A199F
:1002C000C0E0D0E00F900F907FE0E72E71E0F72EB6
:1002D00089E190E069E170E00E94410D87ED91E0D5
:1002E00062E00E9416108091D9019091DA01885E37
:1002F000934090F481E290E065E170E00E94410D4E
:1003000087ED91E062E00E9416108091D9019091F2
:10031000DA01885E934070F38091DD019091DE01F7
:10032000885E934090F481E190E061E270E00E9489
:10033000410D87ED91E062E00E9416108091DD0191
:100340009091DE01885E934070F38091D701909187
:10035000D801885E934008F4BBCF8091DF01909173
:10036000E001885E934008F4B3CFCD2B09F50E94DD
:10037000960900D0EDB7FEB7128301830E949A1947
:100380000F900F9080E061E00E94840A00D0EDB7EA
:10039000FEB7F282E1820E949A190F900F900E949C
:1003A000131088EC90E00E94880FC1E0D0E090CF5D
:1003B0000E94C20F7B018C0180E090E060E070E061
:1003C0000E94410DC801B7012CE030E040E050E050
:1003D0000E94CF17CA01B901DF91CF911F910F91F0
:1003E000FF90EF900895EF92FF920F931F9389E192
:1003F00090E069E170E00E94410D87ED91E062E0DC
:100400000E9416104091D9015091DA0123E0483E34
:10041000520720F58091DB019091DC0163E0883E7A
:10042000960748F41FC08091DB019091DC0123E026
:10043000883E9207B8F081E290E065E170E00E94AA
:10044000410D87ED91E062E00E9416104091D901C4
:100450005091DA0183E0483E580728F38091DB0190
:100460009091DC012091DD013091DE0163E0283EB6
:10047000360710F5885E934040F426C08091DB017A
:100480009091DC01885E9340D8F081E190E061E2D8
:1004900070E00E94410D87ED91E062E00E9416102D
:1004A0002091DD013091DE0183E0283E380730F3F2
:1004B0008091DB019091DC01885E934008F0A0C040
:1004C0004091D9015091DA01485E534008F098C03C
:1004D000285E334008F094C080E090E060E070E077
:1004E0000E94410D87ED91E062E00E94161020E02D
:1004F00030E08091DF019091E001885E934010F040
:1005000021E030E08091D7019091D801885E93403E
:1005100008F09BC0232B09F083C00E94C20F7B010F
:100520008C018091DB019091DC01885E9340A0F00A
:100530006CC089E190E067EE7FEF0E94410D87ED8E
:1005400091E062E00E9416108091DB019091DC0145
:10055000885E934008F059C00E94C20F6E197F094F
:10056000800B910B605B74408040904010F3809151
:10057000DB019091DC01885E934008F046C00E9448
:10058000C20F7B018C018091DB019091DC01885EC0
:10059000934098F03AC087EE9FEF69E170E00E94C7
:1005A000410D87ED91E062E00E9416108091DB0121
:1005B0009091DC01885E934040F50E94C20F6E1955
:1005C0007F09800B910B605679408040904018F372
:1005D0008091DB019091DC01885E9340B0F480E073
:1005E00090E060E070E00E94410D80E991E060E2FF
:1005F00073E048E00E94E00580E293E00E94880FEB
:100600001F910F91FF90EF90089582E390E00E9478
:10061000880F80E090E060E070E00E94410DE7CE3E
:1006200089E190E069E170E00E94410D88EC90E082
:100630000E94880F81E090E00E947E0080E090E0C0
:1006400060E070E00E94410DDBCF232B99F180E93F
:1006500091E060E273E048E00E94E00589E190E00B
:1006600067EE7FEF0E94410D80EB94E00E94880FBF
:100670008091DB019091DC01885E934090F489E1E8
:1006800090E067EE7FEF0E94410D87ED91E062E020
:100690000E9416108091DB019091DC01885E9340EE
:1006A00070F382E390E00E94880F1F910F91FF90FA
:1006B000EF90089589E190E069E170E00E94410DBA
:1006C00088EC90E00E94880F8FEF9FEF0E947E00E1
:1006D00080E090E060E070E00E94410D91CF2F92A9
:1006E0003F924F925F926F927F928F929F92AF92C2
:1006F000BF92CF92DF92EF92FF920F931F93DF93FF
:10070000CF93CDB7DEB72A970FB6F894DEBF0FBEF2
:10071000CDBF0E94220C00D080E091E0EDB7FEB783
:10072000928381830E949A190F900F9080E061E07C
:100730000E94840A00D086E191E0EDB7FEB7928373
:1007400081830E949A190F900F9080E10E94A50D5D
:1007500080ED97E00E9497100E9440012B013C0120
:100760000E94960900D0FEE1AF2EF1E0BF2EEDB75A
:10077000FEB7B282A1820E949A190F900F9080E07A
:1007800061E00E94840A00D084E291E0EDB7FEB7F8
:10079000928381830E949A196E010894C11CD11C16
:1007A000D601EBE2F1E08AE001900D928150E1F791
:1007B00000E010E00F900F90E7E28E2EE1E09E2E19
:1007C00077E0272E71E0372E6CC00E94960900D08A
:1007D000EDB7FEB7B282A1820E949A190F900F90D6
:1007E00080E061E00E94840A00D000D0EDB7FEB73F
:1007F00092828182F801EE0FFF1FEC0DFD1D8081BA
:1008000091819C01220F331F220F331F220F331FB0
:10081000880F991F280F391FEDB7FEB73483238344
:100820000E949A190F900F900F900F90E5FE37C01D
:100830000F5F1F4F0530110509F443C00E94960950
:1008400000D0EDB7FEB7B282A1820E949A190F9034
:100850000F9080E061E00E94840A00D000D0EDB7E4
:10086000FEB792828182F801EE0FFF1FEC0DFD1D95
:10087000808191819C01220F331F220F331F220F91
:10088000331F880F991F280F391FEDB7FEB7348328
:1008900023830E949A190F900F900F900F90E4FC01
:1008A00013C082E30E94630EE82E81FFBFCF015088
:1008B00010409FEF0F3F190709F087CF04E010E0C9
:1008C00084CF00E010E0BACF0E94960900D0EDB7C7
:1008D000FEB7328221820E949A190F900F900E94D7
:1008E0001310000F111F0C0D1D1DF8016081718187
:1008F000882777FD8095982FA30192010E94901779
:100900007B018C0102C00E94F3010E94C20FE61617
:10091000F70608071907B8F780E090E060E070E09C
:100920000E94410D80E991E060E273E048E00E949E
:10093000E0050E94960900D0EDB7FEB7B282A18211
:100940000E949A190F900F9080E061E00E94840A43
:1009500000D084E291E0EDB7FEB7928381830E94DC
:100960009A1900E010E00F900F909BCFF8940C9430
:100970004F1C90916901E0916501F0916601992306
:1009800011F0849101C08081282F21542A3110F464
:10099000805E0895803271F4209165013091660186
:1009A000A9014F5F5F4F5093660140936501211588
:1009B000310509F70895EF92FF92CF93DF930E94DC
:1009C000B904C0E0D0E01BC09E01220F331F93E0AA
:1009D000CC0FDD1F9A95E1F7C20FD31F992787FD32
:1009E0009095C80FD91FE09780916501909166019D
:1009F000019690936601809365010E94B904982F37
:100A000090539A3008F3CE01DF91CF91FF90EF9091
:100A10000895089510926F0083E28093800081E131
:100A2000809381001092820080E197E29093890088
:100A30008093880010928B0010928A00229A7894FA
:100A4000089580916401882329F481E080936401F2
:100A50000E940A050895A0E0B0E0E1E3F5E00C94FF
:100A600012188C015B01E42E0E94210510923501C1
:100A700017FF04C01F77AAE0FA2E02C0FF24F394E8
:100A8000C0908100DD2428EFC222DD2488EC3F2DB8
:100A9000389FC001112480179107D8F4E80167E25C
:100AA0000131160710F0C0E1D7E2BE0176956795D7
:100AB00080E090E06058794687469F4F9E0140E075
:100AC00050E00E94CF17890181E090E0C82AD92A1E
:100AD0002CC098E2F99E902D112480E0892EE4012B
:100AE0004E01982EE4018016910608F4E801BE013B
:100AF000769567959E0140E050E08F2D8A3039F45D
:100B000080E090E0605E734481449F4F06C080E0C7
:100B100090E060537D4E8C4E9F4F0E94CF1789010D
:100B200052E0852E912CC828D9282F2D2A3039F44F
:100B3000CE0105966AE070E00E94BB17EB0133E03E
:100B4000C83ED30779F0BE0180E090E0950140E017
:100B500050E00E94901728EE33E040E050E00E9401
:100B6000F11701C0950110926F00C092810010939F
:100B700089000093880040918800509189006E2D73
:100B8000603108F06FE080E190E0861B9109BA01C6
:100B900002C0769567958A95E2F770938B00609313
:100BA0008A0030936C0120936B0186B38FEF86BB74
:100BB00081E080936F00CDB7DEB7ECE00C942E1887
:100BC0000E942B0508959B018F3F11F0442329F4C7
:100BD00088EE93E0B90140E049C0813130F0582FF0
:100BE0005051503618F05FE501C050E0852F6CE0A1
:100BF0000E94AF17A82FB0E0E4EFFFEFAE9FB00167
:100C0000AF9F700DBE9F700D1124650F711D6C306C
:100C1000710540F4FB01EE0FFF1FE15CFE4F6081A8
:100C2000718102C060E070E0873081F0082E02C060
:100C3000660F771F0A94E2F7823028F0CB01059601
:100C40006AE070E00CC0605070480BC0CB01B6E0A9
:100C5000880F991FBA95E1F7029665E070E00E944F
:100C6000BB17403108F04FE0CB01B9010E942B05C2
:100C70000895A0E0B0E0EFE3F6E00C941118B09016
:100C8000360180916701882361F0609168016623D5
:100C900041F08FEF70E040E00E94E30510926801A0
:100CA00034C1C0ECDDE5AA24A39414E0712E00ED5C
:100CB00017E0B4E0EB2EF12CA4EFCA2EA1E0DA2E5F
:100CC000FFE08F2E912C0E94B90420916501309194
:100CD00066012F5F3F4F3093660120936501863692
:100CE000F1F18736CCF4823609F4AFC083367CF458
:100CF0008E3349F18F333CF4813209F487C08C3351
:100D000009F09BC022C0813609F097C09BC0843691
:100D100001F185360CF51BC08F3609F447C08037CA
:100D200044F48C3611F18D3661F1873609F085C0B7
:100D300019C0843709F444C0863709F460C082378B
:100D400009F07BC039C0B394BECFBA94BCCFEE24B7
:100D500035C0EE2482E07BC0EE2484E078C0EE242F
:100D600085E075C0EE2487E072C00E94DB04BC0100
:100D700090933801809337018091390190913A0125
:100D800037C00E94B9048C3619F41092670104C070
:100D9000A0926701109268018091650190916601AF
:100DA000019690936601809365018DCF0E94DB04CC
:100DB000B82E8093360187CFEE24E39480E047C0BD
:100DC0000E94DB04BC01CE010E94BB17CB01880F3F
:100DD000991F53E0660F771F5A95E1F7860F971F0B
:100DE00090933A01809339016091370170913801F5
:100DF0000E94BB1770933C0160933B0164CF0E943B
:100E0000DB0490933E0180933D015DCF70923601EB
:100E100010933A0100933901F0923801E0923701C2
:100E2000D0923C01C0923B0190923E0180923D01E4
:100E30001092670144E0B42E46CF109266011092E2
:100E4000650163C0EE2489E002C0EE248BE09CE0E3
:100E5000B99EB02C1124B80E0E94B9048B3211F047
:100E60008332B9F480916501909166010196909367
:100E7000660180936501B394EFCF809165019091F5
:100E8000660101969093660180936501BA940E9471
:100E9000B9048D3291F3C0913B01D0913C01815353
:100EA000883058F4C0913901D0913A010E94DB0496
:100EB000BC01CE010E94BB17EB018E010BC08091DB
:100EC000650190916601019690936601809365019A
:100ED000C00FD11F169507950E94B9048E3279F381
:100EE00080916701882339F0CE019695879580938C
:100EF0006801C81BD109EE2011F0BB24BA948B2DD8
:100F0000BE0140913D010E94E305CDB7DEB7EDE0A3
:100F10000C942D181F920F920FB60F9211242F933D
:100F20003F934F935F936F937F938F939F93AF9371
:100F3000BF93EF93FF9380916B0190916C019C01A3
:100F40002150304030936C0120936B01009711F5D4
:100F500010926F00789480918100887F81608093E7
:100F6000810080E197E2909389008093880010923D
:100F70008B0010928A0081E0809335018091650199
:100F800090916601009731F080916A01882311F4F5
:100F90000E943906FF91EF91BF91AF919F918F9180
:100FA0007F916F915F914F913F912F910F900FBE65
:100FB0000F901F9018950E94E305089580913501C8
:100FC000882351F081E0209165013091660121155F
:100FD000310519F480E0089581E008950E94DE074C
:100FE000089510926F0090936601809365011092AE
:100FF0006901109268010E94390608950E94F10764
:10100000089510926F00909366018093650181E0CE
:1010100080936901109268010E94390608950E9428
:101020000108089510926F00E1E8F0E08081887F68
:101030008160808380E197E29093890080938800AB
:1010400010928B0010928A0081E0809335011092FB
:1010500066011092650108950E941208089580911A
:101060003501882341F080916501909166010097D8
:1010700011F00E94390681E02091650130916601EE
:101080002115310509F480E0089580936A018823D1
:1010900011F40E942F0808950E94450808950E94A7
:1010A0002F08089580E090E0089581E090E06F932C
:1010B00064E06A95F1F76F910197C9F70895089573
:1010C0000F931F93CF93DF931AB157985A98289A8A
:1010D000C0E0D0E00E9455085C9A0E94550809B112
:1010E0005C980E9455085C9A0E9455085C9807FF1E
:1010F00011C024969E0140E050E0809171019091D2
:101100007201A0917301B0917401281739074A0741
:101110005B0700F31AB9DF91CF911F910F910895EA
:1011200065B190E0AC0141705070440F551F9C01B7
:101130002670307053E0220F331F5A95E1F7242BAD
:101140006D7C262B25B92BB18870907034E0880F08
:10115000991F3A95E1F72F77282B2BB95C9A0E94BB
:1011600055085C980E9455080895A2E0B0E0EBEBAA
:10117000F8E00C941718182F4A8369830E946009BD
:101180000E946008F4B005B1DAB0EBB0289869812C
:101190004A81662311F05A9A01C05A9884B1826339
:1011A00084B9579A413029F0812F82958F700E941F
:1011B0009008812F8F700E949008DAB8EBB8F4B8CD
:1011C00005B92296E7E00C94331860E042E00E94F3
:1011D000B508089561E042E00E94B5080895EF92D5
:1011E000FF921F93DF93CF930F92CDB7DEB7660FB9
:1011F000660F660F482F592F7A0110E0812F860F56
:10120000806469830E94E508F70184910E94EA08DE
:101210001F5F0894E11CF11C6981183079F70F9069
:10122000CF91DF911F91FF90EF9008950E94EF08FA
:1012300008950E94EA08089560E041E00E94B50820
:10124000089580E197E2A0E0B0E08093710190936F
:101250007201A0937301B0937401529A209A549A28
:101260008EE190E00E94880F83E00E941C0986E0D6
:1012700090E00E94880F83E00E941C0982E090E0C9
:101280000E94880F83E00E941C0982E090E00E9487
:10129000880F82E00E941C0982E090E00E94880F83
:1012A00088E20E94E50888E00E94E50881E00E944B
:1012B000E50886E00E94E5088CE00E94E5080895B4
:1012C00080917501882329F481E0809375010E9443
:1012D0002109089581E00E94E50880916D019091B7
:1012E0006E01009711F1A0E0B0E208C0E0916D013D
:1012F000F0916E01E20FF31FB083AF5F2A2F30E051
:101300008091570190E001976091580170E0869FAD
:10131000A001879F500D969F500D1124241735076B
:101320002CF31092700110926F0108950E946A09C7
:1013300008950E94EA080895EF92FF92CF93DF93F9
:10134000E82EE7017E01F92EE70102C00E94EA08BB
:1013500089918823D9F7DF91CF91FF90EF9008957D
:101360000E949C090895CF93DF93EC0103C00E9473
:10137000EA082196FE0184918823C9F7DF91CF9175
:1013800008950E94B30908950E949C090895AAE057
:10139000B0E0EDECF9E00C9414189B01AC011AE0FC
:1013A000EAE0CE2ED12CE12CF12C5E010894A11C98
:1013B000B11C022FCA01B901A70196010E94CF17E3
:1013C0001150F501E10FF11D005D922F990F892F4A
:1013D000880F880F890F081B0083211531054105EF
:1013E000510539F708C0F601E10FF11D80810E9417
:1013F000EA081F5F04C06E010894C11CD11C1A309A
:1014000090F32A96EAE00C943018EF92FF920F9333
:101410001F937B018C0197FF0BC010950095F094F2
:10142000E094E11CF11C011D111D8DE20E94EA08EF
:10143000C801B7010E94C7091F910F91FF90EF905B
:1014400008950E94050A08950E94C70908958A30E8
:1014500010F4805D01C0895C0E94EA0808951F9322
:10146000182F82958F700E94270A812F8F700E94FB
:10147000270A1F9108951F93182F892F0E942F0A62
:10148000812F0E942F0A1F9108950E943B0A089500
:101490000E942F0A0895FF920F931F93F82E08E0E1
:1014A00010E8812F8F2111F081E301C080E30E94B9
:1014B000EA08015011F01695F4CF1F910F91FF909B
:1014C00008950E944B0A0895A5E0B0E0EAE6FAE02C
:1014D0000C941B18182F80E8898380EC8A8384E998
:1014E0008B8384ED8C83FE01E60FF11D8181810FDA
:1014F0006D830E94E508109370016D8160936F0108
:101500002596E3E00C9437180E94640A0895A0E041
:10151000B0E0EDE8FAE00C941618D82E80916D0139
:1015200090916E01009709F4FAC02D2D2A3009F42C
:1015300043C02830C9F480917001815080937001BC
:101540008F3F51F480916F01815080936F018091A2
:10155000580181508093700180916F018F3F09F095
:10156000D8C010926F01D3C08D2D0E94EA088091DF
:101570006F018823B9F090E001974091580150E045
:10158000849F9001859F300D949F300D1124809190
:101590007001E0916D01F0916E01E20FF31FE80F11
:1015A000F11DD082809170018F5F809370019091C6
:1015B0005801891709F0B3C040916F01242F30E022
:1015C0008091570190E001972817390709F09CC0D6
:1015D000C0E0D0E041C080E06C2F0E94640ACC24BF
:1015E0008E010F5F1F4F33C0EC2CFF2430E0C29FF1
:1015F000C001C39F900DD29F900D1124E0916D0109
:10160000F0916E01EE0DFF1DE80FF91F80810E9421
:10161000EA0880916D0190916E012091580130E0AF
:10162000C29FF001C39FF00DD29FF00D11248E0DCB
:101630009F1DE80FF91F029FD001039FB00D129F5D
:10164000B00D1124A80FB91F8C918083C3942091F1
:101650005801C21648F2E80160915701862F90E0C8
:101660000297C817D9070CF4B6CF6230E0F1625088
:1016700080E00E94640A00E010E231C0C02FD0E098
:101680008091570190E0029750E0849F9001859FE0
:10169000300D949F300D1124E0916D01F0916E0199
:1016A000EC0FFD1FE20FF31F80810E94EA0880917A
:1016B000570190E002974091580150E0849F9001BB
:1016C000859F300D949F300D1124E0916D01F091B4
:1016D0006E01EC0FFD1FE20FF31F10830F5F4091AF
:1016E0005801041758F260915701615080E00E9440
:1016F000640A10E004C080E20E94EA081F5F809143
:1017000058011817C0F303C04F5F40936F01109248
:1017100070018091700160916F010E94640A2D2D0B
:10172000332727FD3095C901CDB7DEB7E8E00C942B
:101730003218813011F48FE001C08EE00E94E5087C
:1017400008950E94990B08958CE00E94E508089581
:101750000E94A40B08950F931F93182F062F08C003
:10176000112311F480E101C084E10E94E5080150D9
:101770000023B1F71F910F9108950E94AB0B0895BC
:101780000F931F93CF93DF93182F062FEA010BC0FF
:10179000112311F488E101C08CE10E94E508CE011B
:1017A0000E94880F0150002399F7DF91CF911F917C
:1017B0000F9108950E94C00B089580916D01909142
:1017C0006E01009711F00E94F6182091570130E049
:1017D000215030408091580190E0AC01249FC0011D
:1017E000259F900D349F900D11240E9449189093CD
:1017F0006E0180936D01009721F1A0E0B0E208C076
:10180000E0916D01F0916E01E20FF31FB083AF5FC5
:101810002A2F30E08091570190E0019760915801A4
:1018200070E0869FA001879F500D969F500D112458
:10183000241735072CF387E89AE062E578E00E94E8
:101840004E1908950E94DD0B08958093580160930E
:1018500057010E94DD0B0895809358016093570152
:101860000E94DD0B0895FC01118210821382128206
:10187000158214821682683068F489E290E09183C0
:1018800080838BE290E0938382838AE290E0958369
:10189000848311C06E30C0F483E290E09183808332
:1018A00085E290E09383828384E290E09583848351
:1018B00070E06850704081E090E002C0880F991F8E
:1018C0006A95E2F7868308956531B8F486E290E080
:1018D0009183808388E290E09383828387E290E023
:1018E0009583848370E06E50704081E090E002C088
:1018F000880F991F6A95E2F786830895FC01A481F9
:10190000B5818681662321F09C91982B9C93089544
:101910009C91809589238C930895FC016F3F31F44D
:10192000A281B3818C91968189270CC0A281B38159
:101930008681662321F09C91982B9C9308959C911D
:10194000809589238C930895A7E0B0E0EAEAFCE053
:101950000C941918282FF62E8E010F5F1F4FC80107
:10196000622F0E94330CC8016F2D0E948D0CC8019C
:1019700061E00E947E0C2796E5E00C9435180895EE
:10198000E0EBF0E083EF8083808184BDE1EBF0E069
:1019900082E08083808185BDE4EBF0E0108280816D
:1019A000E3EBF0E08083808188BD88B587BD86E069
:1019B00060E00E94A40C85E060E00E94A40C8BE033
:1019C00060E00E94A40C83E060E00E94A40C0895F3
:1019D00080917601882329F481E0809376010E942A
:1019E000C00C0895CF93DF93EC010E94E80CD7FF61
:1019F00005C0D095C195DF4F81E001C080E0CF3FA9
:101A0000D10519F014F0CFEFD0E0882319F018BCFD
:101A1000C7BD02C0C8BD17BCDF91CF9108950E9419
:101A2000F20C0895CF93DF93EC010E94E80CD7FFEE
:101A300005C0D095C195DF4F81E001C080E0CF3F68
:101A4000D10519F014F0CFEFD0E0882329F01092DF
:101A5000B400C093B30004C0C093B4001092B300AC
:101A6000DF91CF9108950E94120D0895CF93DF93D7
:101A7000EB010E94F20CCE010E94120DDF91CF917A
:101A800008950E94360D0895089584B18D7C84B91F
:101A900085B1826385B985E090E06F9364E06A95D3
:101AA000F1F76F910197C9F7089580917701882325
:101AB00029F481E0809377010E94450D08951F93DA
:101AC000CF93DF93182F0E94550DC12FD0E023B183
:101AD00030E0209530952C233D2321153105B9F3B5
:101AE0008AE090E00E94880F23B130E02095309585
:101AF0002C233D232115310551F383B1809581239A
:101B0000DF91CF911F9108950E945F0D08951F935B
:101B1000182F0E94550D83B18123E9F38AE090E0EC
:101B20000E94880F83B18123B1F383B181231F9178
:101B300008950E94870D08951F930E945F0D182F2E
:101B40000E94870D812F1F9108950E949C0D08957A
:101B5000A1E0B0E0EEEAFDE00C941C1889830E943D
:101B6000550D93B19095898189232196E2E00C94DB
:101B700038180E94A80D0895BF92CF92DF92EF927D
:101B8000FF920F931F93B82EC3B0DC2CD0940E9409
:101B9000C20F7B018C010E94550D80918301813021
:101BA00021F1813038F0823009F445C0833009F0EA
:101BB00081C063C02B2D30E04D2D50E040955095F5
:101BC000242335232115310509F474C0CB20C0929C
:101BD0007E01E0927F01F0928001009381011093D9
:101BE000820181E08093830165C080917F019091A3
:101BF0008001A0918101B0918201E81AF90A0A0BD3
:101C00001B0B8FE0E816F1040105110508F452C022
:101C100040917E018D2D90E080959095242F30E0AD
:101C200082239323009731F182E080938301C422C1
:101C3000C0927E013FC040917E018D2D842371F0C2
:101C400093E09093830180937E01E0927F01F09274
:101C5000800100938101109382012CC050E08B2DF4
:101C600090E02D2D30E02095309582239323481766
:101C7000590701F1109283011DC080917F0190915D
:101C80008001A0918101B0918201E81AF90A0A0B42
:101C90001B0B8FE0E816F1040105110558F0809147
:101CA0007E018D2119F01092830105C092E090937E
:101CB000830101C080E01F910F91FF90EF90DF90B2
:101CC000CF90BF9008950E94BC0D0895CF92DF92EF
:101CD000EF92FF920F931F93C82ED3B00E94C20FB2
:101CE0007B018C010E94550D80917D01813029F18D
:101CF000813038F0823009F447C0833009F083C066
:101D000065C02C2D30E04D2D50E04095509524239A
:101D100035232115310509F476C0D094DC20D0920A
:101D20007801E0927901F0927A0100937B0110939F
:101D30007C0181E080937D0166C080917901909162
:101D40007A01A0917B01B0917C01E81AF90A0A0B93
:101D50001B0B8FE0E816F1040105110508F453C0D0
:101D6000409178018D2D90E080959095242F30E062
:101D700082239323009739F182E080937D01D094F0
:101D8000D422D09278013FC040917801842F8D21D8
:101D900071F093E090937D0180937801E092790156
:101DA000F0927A0100937B0110937C012CC050E0EB
:101DB0008C2D90E02D2D30E02095309582239323BB
:101DC0004817590701F110927D011DC080917901DA
:101DD00090917A01A0917B01B0917C01E81AF90AF7
:101DE0000A0B1B0B8FE0E816F1040105110558F0F2
:101DF000809178018D2119F010927D0105C092E04B
:101E000090937D0101C080E01F910F91FF90EF90B2
:101E1000DF90CF9008950E94660E08956F9364E05E
:101E20006A95F1F76F910197C9F708952F928F93F3
:101E30009F932FB6809185019091860101968093A2
:101E400085019093860190E080918701891F80939E
:101E5000870190918D019C5F90938D0180918C0101
:101E600080519742C0F090938D0180938C018091B6
:101E7000880190918901019680938801909389014E
:101E800090E080918A01891F80938A0180918B0163
:101E9000891F80938B012FBE9F918F912F90189552
:101EA0000F931F936F5F7F4F8F4F9F4F660F771F6B
:101EB000881F991F25E030E040E050E00E94CF17D6
:101EC000B901CA011F910F9108950F931F936F5F7E
:101ED0007F4F8F4F9F4F660F771F881F991F25E0F9
:101EE00030E040E050E00E94CF17B901CA011F91D5
:101EF0000F910895CF93DF93EC0105C088EE93E036
:101F00000E940E0F21972097C9F7DF91CF91089576
:101F10000E947A0F0895E0E7F0E080818E7F808351
:101F2000A0EBB0E08C9183608C93A1EBB0E08C913E
:101F3000807F8C938C9182608C93B89A8081816031
:101F400080837894089580918E01882329F481E01C
:101F500080938E010E948B0F08950E94A30FE0E7EB
:101F6000F0E080818E7F808320918801309189010B
:101F700040918A0150918B01808181608083B901F9
:101F8000CA0108950E94AD0F08950E94A30F809189
:101F900070008E7F809370002091B2008091840148
:101FA00090918501A0918601B0918701B89904C0F4
:101FB00030E040E050E011C08091B20020918401F7
:101FC00030918501409186015091870120503F4F0B
:101FD0004F4F5F4F90E0A0E0B0E0282B392B4A2B09
:101FE0005B2B80917000816080937000B901CA0101
:101FF00008950E94C50F08950E94A30FE0E7F0E046
:1020000080818E7F808310928801109289011092C6
:102010008A0110928B0110928D0110928C018081A7
:102020008160808308950E94FC0F08959C01462FD3
:102030008FE891E0B9010E94571408958FE891E06C
:102040000E94931108958FE891E00E9477110895FE
:10205000682F8FE891E00E943C1708958FE891E087
:102060000E94AE1108959C01462F8FE891E0B901BE
:102070000E94B61408959C01462F8FE891E0B901A3
:1020800020E00E947A1508959C01462F8FE891E088
:10209000B90121E00E947A15089580918F019091F5
:1020A00090010895809191019091920108958091FD
:1020B00093019091940108958091950190919601DA
:1020C00008950F93DF93CF9300D000D00F92CDB738
:1020D000DEB79C01962FDE011196E9E5F1E085E07F
:1020E00001900D928150E1F7BE016F5F7F4F992300
:1020F00029F08FE891E045E00FEF04C08FE891E010
:1021000045E003E10E94F5118FE891E00E9477110C
:102110000E94FC0F0F900F900F900F900F90CF9197
:10212000DF910F91089561E00E946110089560E0D1
:102130000E94611008959C01462F8FE891E0B9013B
:102140000E94571408958FE891E00E94931108951A
:102150008FE891E00E94771108958FE891E00E9446
:102160003C1708958FE891E00E94AE1108958FE822
:1021700091E00E94B61408958FE891E00E947A15CC
:10218000089580918F01909190010895809191011F
:1021900090919201089580919301909194010895F6
:1021A0008091950190919601089508958FE891E0AE
:1021B0000E94721708956F9364E06A95F1F76F912A
:1021C0000197C9F70895FC011182108213821282CF
:1021D000158214821682683068F489E290E0918357
:1021E00080838BE290E0938382838AE290E0958300
:1021F000848311C06E30C0F483E290E091838083C9
:1022000085E290E09383828384E290E095838483E7
:1022100070E06850704081E090E002C0880F991F24
:102220006A95E2F7868308956531B8F486E290E016
:102230009183808388E290E09383828387E290E0B9
:102240009583848370E06E50704081E090E002C01E
:10225000880F991F6A95E2F786830895E091D5016A
:10226000F091D601808191810895E091D501F0919E
:10227000D601828193810895E091D501F091D60134
:10228000848195810895E091D501F091D6018681F0
:1022900097810895A7E0B0E0E0E5F1E10C941A1809
:1022A0008C01FC0111821082138212821582148229
:1022B00017821682613118F080E1808702C0FC012C
:1022C0006087F801208BCE010196642F0E94330CA9
:1022D0008F81F80181878B819C81938782878D8193
:1022E0009E81958784872796E4E00C943618FC013C
:1022F000A485B585109779F08C919185892B8C9365
:10230000A285B3859C918185809589238C9388ECE7
:1023100090E00E94DB1008958091D5019091D60144
:102320000E9477110895FC01A485B585109771F07E
:102330008C919185892B8C93A285B3858C91918505
:10234000892B8C9388EC90E00E94DB10089580919B
:10235000D5019091D6010E9493110895FC0120E0CF
:1023600039C080819181009759F0A22FB0E0AA0F67
:10237000BB1FA80FB91F8685978511969C938E93D6
:1023800084819581009759F0A22FB0E0AA0FBB1F5E
:10239000A80FB91F8685978511969C938E9382818D
:1023A0009381009749F0A22FB0E0AA0FBB1FA80F9E
:1023B000B91F11961C921E9286819781009749F051
:1023C000A22FB0E0AA0FBB1FA80FB91F11961C9235
:1023D0001E922F5F8085281720F208958091D501E5
:1023E0009091D6010E94AE110895A7E0B0E0EBEF06
:1023F000F1E10C940C187C011B01642F3901402F72
:1024000020E00E944A1197012F5B3F4FF901108293
:10241000D701AE5BBF4F1C92C7018D5B9F4FFC0184
:102420001082F7017786668666242E010894411C87
:10243000511C6C015D01490129C0062D10E0F1011C
:10244000E00FF11FC20160810E94330C2F81F70160
:10245000E00FF11F218B89819A81F801EE0FFF1F98
:10246000EE0DFF1D92A381A38332910511F4F401B7
:1024700009C08632910511F4F50104C08932910535
:1024800021F4F6018081822B80836394F70180859B
:10249000681698F22796E2E10C9428180F930E9490
:1024A000F5110F910895A0E0B0E0E9E5F2E10C9498
:1024B00014187C01162F6A01022F84E490E00E9418
:1024C0004918A82EE5015E01B92EE501209761F0BB
:1024D000C501B701412F96010E94F511B092D601B6
:1024E000A092D50181E001C080E0CDB7DEB7EAE07F
:1024F0000C943018A0E0B0E0E0E8F2E10C94111880
:10250000EC015B01FC01EF5BFF4F9080FC01EE5B97
:10251000FF4F8080FC01ED5BFF4F708080E009C0C1
:10252000E82FF0E0EE0FFF1FEA0DFB1D1182108275
:102530008F5F98858917A0F384B121E4E22EF12CF6
:10254000EC0EFD1ED7019C91892B84B987B18E01B9
:102550000E5B1F4FF8019081892B87B98AB193E4F4
:10256000C92ED12CCC0EDD1ED6019C91892B8AB9A7
:1025700085B1F7019081892B85B988B1D8019C91EB
:10258000892B88B98BB1F6019081892B8BB98AE0B0
:1025900090E00E94DB1094B1D7018C918095892343
:1025A00084B997B1F80180818095892387B99AB160
:1025B000D6018C91809589238AB995B1F7018081E4
:1025C0008095892385B998B1D8018C91809589230C
:1025D00088B99BB1F6018081809589238BB9C09021
:1025E000B000E090B1008091B00083608093B000B3
:1025F00082E08093B1000091B20080E090E039C0A9
:102600002091B200201B820F911D020FF3B0F9142C
:1026100009F04DC096B0981409F049C029B12715AA
:1026200009F045C024C0212F30E0A901440F551FF7
:10263000F501E40FF51F608171816115710599F451
:102640004C0F5D1FDA0191964D915C919297DA01E2
:102650004C912C0F3D1FD90151962C91519742233B
:1026600011F4918380831F5F28851217E0F2892C73
:102670009F2C2E853F858217930710F2C092B000E1
:10268000E092B10020E00FC0E22FF0E0EE0FFF1F5C
:10269000EA0DFB1D80819181009721F48E859F8535
:1026A000918380832F5F8885281770F305C0F3B06E
:1026B00096B079B010E0D8CFCDB7DEB7EDE00C948E
:1026C0002D18A1E0B0E0E7E6F3E10C9416186C01D8
:1026D000162F642FF22E402F21E079830E944A1199
:1026E000F601F1A212A2D60151967981E12FF72FBE
:1026F0007F01F601808590E041968C0D9D1D21E0C3
:1027000030E010C0B701F70141917F014D93A9015D
:10271000FB01008002C0440F551F0A94E2F7412BD1
:10272000F60142A3F60112A1A817B90759F71F73C2
:1027300012A38FEF93E0978786872196E8E00C94A9
:1027400032180F930E9461130F910895AF92BF92B8
:10275000DF92EF92FF920F931F93CF93DF937C0151
:10276000D62E142F022F83E290E00E944918A82E43
:10277000E5015E01B92EE501209761F0C501B701C1
:102780004D2D212F0E946113B092D601A092D50148
:1027900081E001C080E0DF91CF911F910F91FF9008
:1027A000EF90DF90BF90AF900895EF92FF920F935C
:1027B0001F93CF93DF93FC019B0100917C0010914C
:1027C0007A00E7B0F8B080917A0086FDFCCF80E017
:1027D0000AC0A82FB0E0AA0FBB1FA20FB31F11960B
:1027E0001C921E928F5F9085891798F397B182A1F2
:1027F0008095892387B998B182A18095892388B96A
:1028000087E880937A0070E029C0DF01A60FB11D30
:1028100051968C915197806480937C0080917A00CE
:10282000806480937A0080917A0086FDFCCFA62F89
:10283000B0E0AA0FBB1FA20FB31F409178005091C8
:1028400079008D919C911197840F951F11969C93FF
:102850008E936F5F80856817C0F27F5F81A17817C4
:1028600010F460E0F7CF40E014C0C42FD0E0CC0FEC
:10287000DD1FC20FD31F61A170E0CB019595879535
:10288000A881B9818A0F9B1F0E94BB177983688337
:102890004F5F8085481748F300937C0010937A00BF
:1028A000F8B8E7B8CDB7DEB7E6E00C943418A0E28C
:1028B000B0E0EDE5F4E10C9417188C017B01D42E07
:1028C000842F8150823018F4C8010E949311D801DE
:1028D00050968C915097882389F4C801B7010E94C3
:1028E0007A12C8010E947711BD2DB230D9F5C80106
:1028F000BE016F5F7F4F0E947A1210C0C801B701FE
:102900000E94D513C8010E947711ED2DE23051F5D8
:10291000C801BE016F5F7F4F0E94D51360E0AE011A
:102920004F5F5F4F1BC0862F90E0880F991FF70104
:10293000E80FF91F840F951FD8011E962D913C9129
:102940001F97DC018D919C911197281B390B808179
:102950009181820F931F918380836F5FF80180853F
:10296000681708F3A096E7E00C9433188F929F92B3
:10297000AF92BF92CF92DF92FF920F931F93CF93AC
:10298000DF93EC01C62E072FF42E423011F0FF200A
:1029900051F48C819D81009709F4A0C08E819F81A4
:1029A000009709F49BC08F2D8150823050F48881AC
:1029B0009981009709F492C08A819B81009709F45C
:1029C0008DC0CE016C2D702F4F2D0E945714AC2C52
:1029D000B02E00E010E0882499247AC08F2D813039
:1029E00059F4EA81FB81E00FF11FC080D180E881BA
:1029F000F981E00FF11F0DC08C819D81FF2061F4F2
:102A0000EE81FF81E00FF11FC080D180800F911F08
:102A1000FC01408151812BC0800F911FFC018081FE
:102A20009181E881F981E00FF11F40815181CE84CD
:102A3000DF848417950710F4A60104C04C0D5D1DBA
:102A4000481B590BEE81FF81E00FF11F80819181BE
:102A5000EA81FB81E00FF11F20813181CE84DF8488
:102A60008217930720F0C20ED31EC81AD90AC41ABF
:102A7000D50AD1F0F5016081718180E090E09A0182
:102A800040E050E0621B730B840B950B28EE33E0A3
:102A900040E050E00E949017960140E050E00E9414
:102AA000F11737FD0AC002C020E030E0F3E0293E14
:102AB0003F072CF028EE33E002C020E030E0F501C3
:102AC000219331935F010894811C911C0E5F1F4F6D
:102AD000888590E0881699060CF480CFDF91CF911D
:102AE0001F910F91FF90DF90CF90BF90AF909F907C
:102AF0008F900895A5E0B0E0E0E8F5E10C940C18A3
:102B00004C01C62EE72E2D830E94B614D4011896D0
:102B10004C901897DE2C642D70E080E090E028EE59
:102B200033E040E050E00E94901769837A838B8302
:102B30009C83EE24FF24870166247724882499242B
:102B40005401552436C0F6013081218142E0242E03
:102B5000312CC20CD31CC901492F582F1A012D81C9
:102B6000222329F088EE93E0821993091C0199EC45
:102B7000291631042CF4A3E32A16310494F002C080
:102B800055245394B101882777FD8095982FA8018B
:102B900097010E949017860E971EA81EB91E620C00
:102BA000731C88EE93E0A0E0B0E0E80EF91E0A1F67
:102BB0001B1F89819A81AB81BC81E816F9060A073F
:102BC0001B0709F65520F1F45524089441085108D3
:102BD00024EF31E0429EC001439E900D529E900D25
:102BE00011242091D3013091D40128173907B4F072
:102BF00088EE93E0489E9001499E300D589E300D1E
:102C000011240EC0930140E050E0C501B4010E94C0
:102C1000CF172093D3013093D40102C020E030E0DD
:102C2000C9012596E2E10C9428189C01462F809159
:102C3000D5019091D601B90121E00E947A1508953D
:102C40009C01462F8091D5019091D601B90120E0D9
:102C50000E947A1508959C01462F8091D50190918C
:102C6000D601B9010E94B6140895A7E6B0E0EBE3DF
:102C7000F6E10C940C188C014B016A01A6962FAF5B
:102C8000A697DA018D919C9111970097E9F4F801CC
:102C9000808590E0880F991F0E944918D6011196EF
:102CA0009C938E93009709F4E2C0FC0180E090E0D1
:102CB00003C0119211920196D80118962C91189781
:102CC00030E082179307ACF3F40180819181009783
:102CD00089F0EE24FF245E010894A11CB11CB1E42C
:102CE0006B2E712C6C0E7D1EA1E24A2E512C4C0EC7
:102CF0005D1E23C0D80118968C9190E0880F991F13
:102D00000E944918F40191838083009709F4AFC0B1
:102D1000FC0180E090E0D80107C01E962D913C9107
:102D20001F9721933193019618962C91189730E0B4
:102D30008217930794F38D01CCCFC801B501A696F5
:102D40004FADA6970E945714D80118968C911897EA
:102D5000E82FF0E0A596FFAFEEAFA5971301F501C0
:102D6000A3965FAE4EAEA397930140E050E0A896C5
:102D70005FAE4EAEA89737C0E114F10461F0A8969B
:102D8000AEADBFADA8976D917C9111978081918177
:102D90006817790760F480819181A896AEADBFADC8
:102DA000A89711969C938E93E114F10449F0D901F0
:102DB0006D917C911197808191818617970728F4F6
:102DC00080819181D9018D939C934F5F5F4F2E5FDE
:102DD0003F4F3296A8968EAD9FADA8970296A896C3
:102DE0009FAF8EAFA897A596AEADBFADA5974A177A
:102DF0005B0714F20894E11CF11CBAE0EB16F10435
:102E000009F09BCF80E090E02CC0F10141915191FD
:102E10001F01BC01660F771FD601ED91FC91119740
:102E2000E60FF71F208131812417350710F45183F5
:102E30004083A396EEADFFADA39741915191A39628
:102E4000FFAFEEAFA397D401ED91FC911197E60F80
:102E5000F71F208131814217530710F451834083BB
:102E60000196F801208530E08217930774F2C95962
:102E7000DF4FE2E10C9428181F93CF93DF93EC010E
:102E8000162F862F8150823058F4AE014E5F5F4F6F
:102E9000CE01BE0121E00E943516123019F00CC09F
:102EA000662351F4BE016C5F7F4FAE014A5F5F4FF6
:102EB000CE0120E00E943516DF91CF911F91089539
:102EC000682F8091D5019091D6010E943C170895FA
:102ED0009C01462F8091D5019091D601B9010E94A5
:102EE00057140895CF93DF93EC018A819B8100975B
:102EF00011F00E94F6188E819F81009711F00E94B8
:102F0000F61888819981009711F00E94F6188C813B
:102F10009D81009711F00E94F618DF91CF910895DE
:102F2000629FD001739FF001829FE00DF11D649FAD
:102F3000E00DF11D929FF00D839FF00D749FF00D39
:102F4000659FF00D9927729FB00DE11DF91F639FDA
:102F5000B00DE11DF91FBD01CF0111240895991B8A
:102F600079E004C0991F961708F0961B881F7A9580
:102F7000C9F780950895AA1BBB1B51E107C0AA1F82
:102F8000BB1FA617B70710F0A61BB70B881F991F0A
:102F90005A95A9F780959095BC01CD010895A1E2BD
:102FA0001A2EAA1BBB1BFD010DC0AA1FBB1FEE1FC3
:102FB000FF1FA217B307E407F50720F0A21BB30B0E
:102FC000E40BF50B661F771F881F991F1A9469F78A
:102FD00060957095809590959B01AC01BD01CF01E6
:102FE000089597FB092E05260ED057FD04D0D7DF94
:102FF0000AD0001C38F450954095309521953F4FEC
:103000004F4F5F4F0895F6F79095809570956195B5
:103010007F4F8F4F9F4F08952F923F924F925F9215
:103020006F927F928F929F92AF92BF92CF92DF92D8
:10303000EF92FF920F931F93CF93DF93CDB7DEB73D
:10304000CA1BDB0B0FB6F894DEBF0FBECDBF0994D1
:103050002A88398848885F846E847D848C849B8428
:10306000AA84B984C884DF80EE80FD800C811B8136
:10307000AA81B981CE0FD11D0FB6F894DEBF0FBE65
:10308000CDBFED010895EE0FFF1F0590F491E02DE7
:103090000994CF93DF93BC018230910510F462E074
:1030A00070E0A091E301B091E401ED01E0E0F0E017
:1030B00040E050E021C0888199818617970769F424
:1030C0008A819B81309719F09383828304C0909307
:1030D000E4018093E301FE0134C06817790738F4F6
:1030E0004115510519F08417950708F4AC01FE014C
:1030F0008A819B819C01E9012097E9F641155105E0
:10310000A9F1CA01861B970B049708F4BA01E0E005
:10311000F0E02AC08D919C91119784179507F9F4DE
:103120006417750781F412968D919C9113973097CF
:1031300019F09383828304C09093E4018093E301A8
:10314000FD0132964FC0CA01861B970BFD01E80FA7
:10315000F91F6193719302978D939C9343C0FD0176
:10316000828193819C01D9011097A1F68091E101A0
:103170009091E201892B41F480916001909161016D
:103180009093E2018093E1014091620150916301CB
:103190004115510541F44DB75EB780915E019091A4
:1031A0005F01481B590B2091E1013091E201241786
:1031B0003507B0F4CA01821B930B8617970780F07E
:1031C000AB014E5F5F4F8417950750F0420F531FBE
:1031D0005093E2014093E101F9016193719302C0C0
:1031E000E0E0F0E0CF01DF91CF910895CF93DF933E
:1031F000009709F450C0EC0122971B821A82A0911B
:10320000E301B091E401109709F140E050E0AC1700
:10321000BD0708F1BB83AA83FE0121913191E20F22
:10322000F31FAE17BF0779F48D919C911197280F6A
:10323000391F2E5F3F4F3983288312968D919C91C1
:1032400013979B838A834115510571F4D093E40150
:10325000C093E30120C012968D919C911397AD010C
:10326000009711F0DC01D3CFFA01D383C2832191FF
:103270003191E20FF31FCE17DF0769F4888199813E
:10328000280F391F2E5F3F4FFA01318320838A8137
:103290009B8193838283DF91CF9108950F931F9336
:1032A000CF93DF938C01EB01009731F46115710529
:1032B00019F420E030E038C081E090E06EE070E08A
:1032C0000E948C1BFC019C01009771F180E88383B4
:1032D000209771F0D387C28781E883838091E501CD
:1032E0009091E601892B21F4F093E601E093E5014A
:1032F00001151105C9F011870087838182608383DE
:103300008091E7019091E801892B71F4F093E80135
:10331000E093E7018091E9019091EA01892B21F482
:10332000F093EA01E093E901C901DF91CF911F9188
:103330000F910895A0E0B0E0E0EAF9E10C941C18C8
:10334000FE013596619171918091E7019091E801BC
:10335000AF010E94AF192096E2E00C943818ABE060
:10336000B0E0E5EBF9E10C940C183C012B015A019B
:10337000FC0117821682838181FD03C06FEF7FEF0E
:10338000C6C19AE0892E1E010894211C311CF3014C
:103390002381F20123FD859123FF81912F01882351
:1033A00009F4B2C1853239F423FD859123FF81915F
:1033B0002F01853229F490E0B3010E94C51BE7CFAD
:1033C000982FFF24EE249924FFE1FF15D0F09B32C3
:1033D00069F09C3228F4903259F0933291F40EC087
:1033E0009D3249F0903369F441E024C052E0F52A5F
:1033F00084E0F82A28C098E0F92A25C0E0E1FE2AF6
:1034000022C0F7FC29C0892F80538A3070F4F6FE61
:1034100005C0989C902C1124980E15C0E89CE02CB7
:103420001124E80EF0E2FF2A0EC09E3229F4F6FCC9
:103430006BC140E4F42A07C09C3619F450E8F52A21
:1034400002C0983649F4F20123FD959123FF919132
:103450002F01992309F0B8CF892F8554833018F0B4
:103460008052833038F444E050E0A40EB51E5FE390
:1034700059830FC0933631F0933779F0933509F0C3
:1034800056C020C0F5018081898342E050E0A40E3F
:10349000B51E610101E010E012C0F501C080D180CD
:1034A000F6FC03C06FEF7FEF02C0692D70E042E0D1
:1034B00050E0A40EB51EC6010E94BA1B8C015FE746
:1034C000F52214C0F501C080D180F6FC03C06FEF77
:1034D0007FEF02C0692D70E042E050E0A40EB51EFF
:1034E000C6010E94A81B8C0150E8F52AF3FE07C014
:1034F0001AC080E290E0B3010E94C51BEA948E2DB1
:1035000090E008171907A8F30EC0F601F7FC8591A3
:10351000F7FE81916F0190E0B3010E94C51BE1109D
:10352000EA94015010400115110579F7EAC094366C
:1035300011F0993669F5F7FE08C0F5012081318157
:103540004281538184E090E00AC0F501808191813D
:103550009C01442737FD4095542F82E090E0A80E4F
:10356000B91E9FE6F92257FF09C050954095309546
:1035700021953F4F4F4F5F4FE0E8FE2ACA01B90146
:10358000A1012AE030E00E94F11BD82ED21840C0E1
:10359000953729F41F2D1F7E2AE030E01DC01F2D16
:1035A000197F9F3661F0903720F4983509F0ACC050
:1035B0000FC0903739F0983709F0A6C004C028E052
:1035C00030E00AC0106114FD146020E130E004C056
:1035D00014FD166020E132E017FF08C0F50160819C
:1035E00071818281938144E050E008C0F5018081BF
:1035F0009181BC0180E090E042E050E0A40EB51E55
:10360000A1010E94F11BD82ED2188FE7F82EF122CB
:10361000F6FE0BC05EEFF522D91438F4F4FE07C0B5
:10362000F2FC05C08FEEF82202C01D2D01C0192D3D
:10363000F4FE0DC0FE01ED0DF11D8081803319F403
:1036400099EEF92208C01F5FF2FE05C003C08F2D5E
:10365000867809F01F5F0F2DF3FC14C0F0FE0FC039
:103660001E1510F09D2C0BC09D2C9E0C911A1E2D2A
:1036700006C080E290E0B3010E94C51B1F5F1E15CB
:10368000C0F304C01E1510F4E11A01C0EE2404FFBB
:103690000FC080E390E0B3010E94C51B02FF1DC074
:1036A00001FD03C088E790E00EC088E590E00BC004
:1036B000802F867891F001FF02C08BE201C080E28A
:1036C000F7FC8DE290E0B3010E94C51B06C080E3C9
:1036D00090E0B3010E94C51B9A94D914C0F3DA9408
:1036E000F101ED0DF11D808190E0B3010E94C51B39
:1036F000DD20A9F706C080E290E0B3010E94C51B5F
:10370000EA94EE20C1F743CEF30166817781CB01C5
:103710002B96E2E10C9428180F931F93CF93DF931D
:10372000689F8001699F100D789F100D1124C801BA
:103730000E944918EC01009729F060E070E0A801B0
:103740000E94B31BCE01DF91CF911F910F9108957D
:10375000FC010590615070400110D8F7809590955C
:103760008E0F9F1F0895DC0101C06D9341505040A2
:10377000E0F70895FC016150704001900110D8F706
:10378000809590958E0F9F1F08950F931F93CF9351
:10379000DF938C01EB018B8181FF1BC082FF0DC089
:1037A0002E813F818C819D812817390764F4E8813F
:1037B000F9810193F983E88306C0E885F985802FB4
:1037C0000995892B31F48E819F8101969F838E8389
:1037D00002C00FEF1FEFC801DF91CF911F910F9132
:1037E0000895FA01AA27283051F1203181F1E89497
:1037F0006F936E7F6E5F7F4F8F4F9F4FAF4FB1E0E4
:103800003ED0B4E03CD0670F781F891F9A1FA11DDE
:10381000680F791F8A1F911DA11D6A0F711D811DDF
:10382000911DA11D20D009F468943F912AE0269FA4
:1038300011243019305D3193DEF6CF010895462F03
:103840004770405D4193B3E00FD0C9F7F6CF462FE4
:103850004F70405D4A3318F0495D31FD405241934D
:1038600002D0A9F7EACFB4E0A6959795879577950A
:103870006795BA95C9F700976105710508959B0191
:10388000AC010A2E06945795479537952795BA951A
:10389000C9F7620F731F841F951FA01D089510E0C4
:1038A000CAE6D0E004C0FE010E9445182296CC363C
:0838B000D107C9F7F894FFCF1E
:1038B80043616C6962720044726976696E6700548C
:1038C800696D696E670050726573732042005265B6
:1038D80061647900313000256400010100030006AD
:1038E8000009000F0001040400D007F4010F009C38
:1038F80001B501CF01EA0107022602470269028EDB
:1039080002B502DE020A0302080E0F10111220008F
:04391800EB010000BF
:00000001FF
