:100000000C9436000C945E000C945E000C945E0020
:100010000C945E000C945E000C945E000C945E00E8
:100020000C945E000C945C0D0C945E000C945E00CD
:100030000C945E000C94D0050C945E000C945E0051
:100040000C945E000C945E000C945E000C945E00B8
:100050000C945E000C945E000C945E000C945E00A8
:100060000C945E000C945E001B0F1C0F11241FBE2D
:10007000CFEFD8E0DEBFCDBF11E0A0E0B1E0E4E417
:10008000F5E302C005900D92A835B107D9F711E04C
:10009000A8E5B1E001C01D92AF3DB107E1F710E066
:1000A000CAE6D0E004C02297FE010E948B16C83633
:1000B000D107C9F70E9427010C94FC020C940000A0
:1000C000809127018F5F809327010895BC016F5FA6
:1000D0007F4F880F991F880F991F681B790B660F38
:1000E000771F675E7F4F880F991F49960E94870B85
:1000F0008BEC91E062E00E945C0E08950E94590E24
:100100008091CF019091D001885E9340A0F055C0BE
:1001100089E190E067EE7FEF0E94870B8BEC91E026
:1001200062E00E945C0E8091CF019091D001885EC8
:10013000934008F042C00E94080E605B744080400B
:10014000904030F38091CF019091D001885E934030
:10015000A0F50E94590E8091D1019091D201885E44
:10016000934098F019C087EE9FEF69E170E00E941C
:10017000870B8BEC91E062E00E945C0E8091D101D4
:100180009091D201885E934038F40E94080E605628
:1001900079408040904038F38091CF019091D00118
:1001A000885E934050F480E090E060E070E00E9450
:1001B000870B20E030E0C901089582E390E00E94BF
:1001C000CE0D80E090E060E070E00E94870B21E0BF
:1001D00030E0C90108950F931F93CF93DF939C01E3
:1001E0008091CF019091D001885E934038F5C9018C
:1001F000880F991F820F931F880F991F880F991FCF
:10020000880F991F820F931F8C0187EE9FEF289F05
:10021000E001299FD00D389FD00D1124C801BE01E7
:100220000E94870B8BEC91E062E00E945C0E809153
:10023000CF019091D001885E934080F382E390E0FB
:100240000E94CE0DDF91CF911F910F910895EF92F3
:10025000FF920F931F93CF93DF930E94680A00D001
:1002600080E091E0EDB7FEB7928381830E94E017B2
:100270000F900F9080E061E00E94CA0800D087E0F4
:1002800091E0EDB7FEB7928381830E94E0170F9053
:100290000F9080E10E94EB0B88E893E10E94DD0E55
:1002A000CFE0D1E000E211E07BE1E72E71E0F72E34
:1002B0000E94DC0700D0EDB7FEB7D283C1830E9455
:1002C000E0170F900F9089E190E069E170E00E94E3
:1002D000870B8BEC91E062E00E945C0E4091CD01B7
:1002E0005091CE01F3E0483E5F0720F58091CF01A9
:1002F0009091D00123E0883E920748F41FC080917E
:10030000CF019091D001E3E0883E9E07B8F081E2F2
:1003100090E065E170E00E94870B8BEC91E062E079
:100320000E945C0E4091CD015091CE0163E0483EA9
:10033000560728F38091CF019091D0012091D101EF
:100340003091D201F3E0283E3F0710F5885E9340DC
:1003500040F426C08091CF019091D001885E9340F7
:10036000D8F081E190E061E270E00E94870B8BECB5
:1003700091E062E00E945C0E2091D1013091D201A7
:1003800083E0283E380730F38091CF019091D0016F
:10039000885E934008F08CCF4091CD015091CE0102
:1003A000485E534008F084CF285E334008F080CF89
:1003B00080E090E060E070E00E94870B8BEC91E0C1
:1003C00062E00E945C0E20E030E08091D3019091C9
:1003D000D401885E934010F021E030E08091CB01A1
:1003E0009091CC01885E934018F5232B09F45DC0F1
:1003F0000E94DC0700D0EDB7FEB7F282E1820E94D6
:10040000E0170F900F9089E190E069E170E00E94A1
:10041000870B88EC90E00E94CE0D81E090E00E9476
:10042000EB0080E090E060E070E00E94870B40CF3E
:10043000232B09F4C1C00E94DC0700D0EDB7FEB742
:10044000128301830E94E0170F900F9080E991E0E2
:1004500060E273E048E00E94260489E190E067EEE4
:100460007FEF0E94870B80EB94E00E94CE0D80917D
:10047000CF019091D001885E934090F489E190E0A3
:1004800067EE7FEF0E94870B8BEC91E062E00E94A9
:100490005C0E8091CF019091D001885E934070F303
:1004A00082E390E00E94CE0D03CF0E94590E80910E
:1004B000CF019091D001885E9340A0F072C089E195
:1004C00090E067EE7FEF0E94870B8BEC91E062E09B
:1004D0000E945C0E8091CF019091D001885E934084
:1004E00008F05FC00E94080E605B7440804090403E
:1004F00030F38091CF019091D001885E934008F055
:1005000050C00E94590E8091D1019091D201885E15
:100510009340C8F40E94080E605679408040904095
:1005200090F487EE9FEF69E170E00E94870B8BECFF
:1005300091E062E00E945C0E8091D1019091D20125
:10054000885E934038F38091CF019091D001885E0E
:10055000934038F580E090E060E070E00E94870B07
:100560000E94DC0700D087E191E0EDB7FEB79283EF
:1005700081830E94E0170F900F9080E991E060E284
:1005800073E048E00E94260480E293E00E94CE0DD2
:1005900080E090E0DF91CF911F910F91FF90EF905D
:1005A000089582E390E00E94CE0D80E090E060E04C
:1005B00070E00E94870B7CCE0E94DC0700D0EDB774
:1005C000FEB7F282E1820E94E0170F900F9089E15E
:1005D00090E069E170E00E94870B88EC90E00E9457
:1005E000CE0D8FEF9FEF0E94EB0080E090E060E087
:1005F00070E00E94870B5CCEF8940C94951A909151
:100600005D01E0915901F0915A01992311F0849113
:1006100001C08081282F21542A3110F4805E089572
:10062000803271F42091590130915A01A9014F5F34
:100630005F4F50935A01409359012115310509F735
:100640000895EF92FF92CF93DF930E94FF02C0E0E4
:10065000D0E01BC09E01220F331F93E0CC0FDD1FA3
:100660009A95E1F7C20FD31F992787FD9095C80F80
:10067000D91FE0978091590190915A01019690936A
:100680005A01809359010E94FF02982F90539A308B
:1006900008F3CE01DF91CF91FF90EF900895089578
:1006A00010926F0083E28093800081E1809381004B
:1006B0001092820080E197E29093890080938800F5
:1006C00010928B0010928A00229A7894089580915B
:1006D0005801882329F481E0809358010E94500337
:1006E0000895A0E0B0E0E7E7F3E00C9458168C0121
:1006F0005B01E42E0E9467031092280117FF04C0DB
:100700001F77AAE0FA2E02C0FF24F394C090810064
:10071000DD2428EFC222DD2488EC3F2D389FC00164
:10072000112480179107D8F4E80167E20131160718
:1007300010F0C0E1D7E2BE017695679580E090E0C9
:100740006058794687469F4F9E0140E050E00E94E6
:100750001516890181E090E0C82AD92A2CC098E2B8
:10076000F99E902D112480E0892EE4014E01982EEF
:10077000E4018016910608F4E801BE0176956795BC
:100780009E0140E050E08F2D8A3039F480E090E007
:10079000605E734481449F4F06C080E090E06053E8
:1007A0007D4E8C4E9F4F0E941516890152E0852E7A
:1007B000912CC828D9282F2D2A3039F4CE0105963E
:1007C0006AE070E00E940116EB0133E0C83ED307F7
:1007D00079F0BE0180E090E0950140E050E00E9499
:1007E000D61528EE33E040E050E00E94371601C0F5
:1007F000950110926F00C0928100109389000093C0
:10080000880040918800509189006E2D603108F079
:100810006FE080E190E0861B9109BA0102C07695F5
:1008200067958A95E2F770938B0060938A00309306
:10083000600120935F0186B38FEF86BB81E08093D8
:100840006F00CDB7DEB7ECE00C9474160E94710314
:1008500008959B018F3F11F0442329F488EE93E023
:10086000B90140E049C0813130F0582F5051503625
:1008700018F05FE501C050E0852F6CE00E94F5158F
:10088000A82FB0E0E4EFFFEFAE9FB001AF9F700D77
:10089000BE9F700D1124650F711D6C30710540F401
:1008A000FB01EE0FFF1FEE5CFE4F6081718102C005
:1008B00060E070E0873081F0082E02C0660F771F7D
:1008C0000A94E2F7823028F0CB0105966AE070E0E6
:1008D0000CC0605070480BC0CB01B6E0880F991F68
:1008E000BA95E1F7029665E070E00E94011640318A
:1008F00008F04FE0CB01B9010E9471030895A0E018
:10090000B0E0E5E8F4E00C945716B090290180912E
:100910005B01882361F060915C01662341F08FEFF9
:1009200070E040E00E94290410925C0134C1C0ECE8
:10093000DDE5AA24A39414E0712E00ED17E0B4E0E5
:10094000EB2EF12CA4EFCA2EA1E0DA2EFFE08F2EC1
:10095000912C0E94FF022091590130915A012F5F82
:100960003F4F30935A01209359018636F1F1873673
:10097000CCF4823609F4AFC083367CF48E3349F16F
:100980008F333CF4813209F487C08C3309F09BC06B
:1009900022C0813609F097C09BC0843601F18536AC
:1009A0000CF51BC08F3609F447C0803744F48C36F1
:1009B00011F18D3661F1873609F085C019C0843791
:1009C00009F444C0863709F460C0823709F07BC05F
:1009D00039C0B394BECFBA94BCCFEE2435C0EE2458
:1009E00082E07BC0EE2484E078C0EE2485E075C010
:1009F000EE2487E072C00E942103BC0190932B017A
:100A000080932A0180912C0190912D0137C00E9482
:100A1000FF028C3619F410925B0104C0A0925B01B6
:100A200010925C018091590190915A010196909326
:100A30005A01809359018DCF0E942103B82E8093D3
:100A4000290187CFEE24E39480E047C00E94210370
:100A5000BC01CE010E940116CB01880F991F53E003
:100A6000660F771F5A95E1F7860F971F90932D0118
:100A700080932C0160912A0170912B010E94011634
:100A800070932F0160932E0164CF0E9421039093F5
:100A90003101809330015DCF7092290110932D01B7
:100AA00000932C01F0922B01E0922A01D0922F01A9
:100AB000C0922E01909231018092300110925B0120
:100AC00044E0B42E46CF10925A011092590163C0EF
:100AD000EE2489E002C0EE248BE09CE0B99EB02CAD
:100AE0001124B80E0E94FF028B3211F08332B9F448
:100AF0008091590190915A01019690935A018093E7
:100B00005901B394EFCF8091590190915A01019608
:100B100090935A0180935901BA940E94FF028D323A
:100B200091F3C0912E01D0912F018153883058F458
:100B3000C0912C01D0912D010E942103BC01CE0156
:100B40000E940116EB018E010BC08091590190911A
:100B50005A01019690935A0180935901C00FD11FF9
:100B6000169507950E94FF028E3279F380915B0102
:100B7000882339F0CE019695879580935C01C81B38
:100B8000D109EE2011F0BB24BA948B2DBE01409107
:100B900030010E942904CDB7DEB7EDE00C94731646
:100BA0001F920F920FB60F9211242F933F934F93E2
:100BB0005F936F937F938F939F93AF93BF93EF93C5
:100BC000FF9380915F01909160019C012150304022
:100BD0003093600120935F01009711F510926F0030
:100BE000789480918100887F81608093810080E18A
:100BF00097E2909389008093880010928B00109266
:100C00008A0081E0809328018091590190915A01D6
:100C1000009731F080915E01882311F40E947F04D7
:100C2000FF91EF91BF91AF919F918F917F916F91C4
:100C30005F914F913F912F910F900FBE0F901F909A
:100C400018950E942904089580912801882351F065
:100C500081E02091590130915A012115310519F493
:100C600080E0089581E008950E942406089510927E
:100C70006F0090935A018093590110925D01109278
:100C80005C010E947F0408950E9437060895109227
:100C90006F0090935A018093590181E080935D0128
:100CA00010925C010E947F0408950E9447060895F7
:100CB00010926F00E1E8F0E08081887F816080839E
:100CC00080E197E2909389008093880010928B00D6
:100CD00010928A0081E08093280110925A011092AC
:100CE000590108950E94580608958091280188238B
:100CF00041F08091590190915A01009711F00E94A2
:100D00007F0481E02091590130915A01211531056C
:100D100009F480E0089580935E01882311F40E9415
:100D2000750608950E948B0608950E947506089521
:100D300080E090E0089581E090E06F9364E06A9530
:100D4000F1F76F910197C9F7089508950F931F93D5
:100D5000CF93DF931AB157985A98289AC0E0D0E001
:100D60000E949B065C9A0E949B0609B15C980E94B7
:100D70009B065C9A0E949B065C9807FF11C0249614
:100D80009E0140E050E08091650190916601A09144
:100D90006701B0916801281739074A075B0700F31C
:100DA0001AB9DF91CF911F910F91089565B190E02D
:100DB000AC0141705070440F551F9C01267030707B
:100DC00053E0220F331F5A95E1F7242B6D7C262B1D
:100DD00025B92BB18870907034E0880F991F3A952F
:100DE000E1F72F77282B2BB95C9A0E949B065C9821
:100DF0000E949B060895A2E0B0E0E1E0F7E00C94C9
:100E00005D16182F4A8369830E94A6070E94A606D2
:100E1000F4B005B1DAB0EBB0289869814A81662355
:100E200011F05A9A01C05A9884B1826384B9579AD2
:100E3000413029F0812F82958F700E94D606812F34
:100E40008F700E94D606DAB8EBB8F4B805B92296CE
:100E5000E7E00C94791660E042E00E94FB060895FA
:100E600061E042E00E94FB060895EF92FF921F931B
:100E7000DF93CF930F92CDB7DEB7660F660F660F85
:100E8000482F592F7A0110E0812F860F80646983E3
:100E90000E942B07F70184910E9430071F5F08947E
:100EA000E11CF11C6981183079F70F90CF91DF9127
:100EB0001F91FF90EF9008950E94350708950E94BA
:100EC0003007089560E041E00E94FB06089580E14C
:100ED00097E2A0E0B0E08093650190936601A09353
:100EE0006701B0936801529A209A549A8EE190E07B
:100EF0000E94CE0D83E00E94620786E090E00E948F
:100F0000CE0D83E00E94620782E090E00E94CE0D49
:100F100083E00E94620782E090E00E94CE0D82E0B2
:100F20000E94620782E090E00E94CE0D88E20E945B
:100F30002B0788E00E942B0781E00E942B0786E0A8
:100F40000E942B078CE00E942B0708958091690175
:100F5000882329F481E0809369010E94670708953E
:100F600081E00E942B0780916101909162010097BE
:100F700011F1A0E0B0E208C0E0916101F0916201DE
:100F8000E20FF31FB083AF5F2A2F30E080914A0158
:100F900090E0019760914B0170E0869FA001879FD0
:100FA000500D969F500D1124241735072CF31092E5
:100FB00064011092630108950E94B00708950E9491
:100FC00030070895EF92FF92CF93DF93E82EE70169
:100FD0007E01F92EE70102C00E9430078991882323
:100FE000D9F7DF91CF91FF90EF9008950E94E2072B
:100FF0000895CF93DF93EC0103C00E943007219640
:10100000FE0184918823C9F7DF91CF9108950E9452
:10101000F90708950E94E2070895AAE0B0E0E3E12D
:10102000F8E00C945A169B01AC011AE0EAE0CE2ECF
:10103000D12CE12CF12C5E010894A11CB11C022FD3
:10104000CA01B901A70196010E9415161150F501B8
:10105000E10FF11D005D922F990F892F880F880FE6
:10106000890F081B0083211531054105510539F70A
:1010700008C0F601E10FF11D80810E9430071F5F5B
:1010800004C06E010894C11CD11C1A3090F32A963A
:10109000EAE00C947616EF92FF920F931F937B0178
:1010A0008C0197FF0BC010950095F094E094E11C23
:1010B000F11C011D111D8DE20E943007C801B7010E
:1010C0000E940D081F910F91FF90EF9008950E94CC
:1010D0004B0808950E940D0808958A3010F4805D31
:1010E00001C0895C0E94300708951F93182F8295D4
:1010F0008F700E946D08812F8F700E946D081F9164
:1011000008951F93182F892F0E947508812F0E9420
:1011100075081F9108950E94810808950E9475081E
:101120000895FF920F931F93F82E08E010E8812F87
:101130008F2111F081E301C080E30E94300701504C
:1011400011F01695F4CF1F910F91FF9008950E9412
:1011500091080895A5E0B0E0E0EBF8E00C9461168A
:10116000182F80E8898380EC8A8384E98B8384ED5F
:101170008C83FE01E60FF11D8181810F6D830E943A
:101180002B07109364016D81609363012596E3E062
:101190000C947D160E94AA080895A0E0B0E0E3ED4B
:1011A000F8E00C945C16D82E809161019091620158
:1011B000009709F4FAC02D2D2A3009F443C02830D5
:1011C000C9F4809164018150809364018F3F51F490
:1011D0008091630181508093630180914B01815024
:1011E00080936401809163018F3F09F0D8C0109211
:1011F0006301D3C08D2D0E94300780916301882345
:10120000B9F090E0019740914B0150E0849F90012C
:10121000859F300D949F300D112480916401E091E1
:101220006101F0916201E20FF31FE80FF11DD0821E
:10123000809164018F5F8093640190914B018917C5
:1012400009F0B3C040916301242F30E080914A013E
:1012500090E001972817390709F09CC0C0E0D0E062
:1012600041C080E06C2F0E94AA08CC248E010F5F41
:101270001F4F33C0EC2CFF2430E0C29FC001C39F3E
:10128000900DD29F900D1124E0916101F0916201C7
:10129000EE0DFF1DE80FF91F80810E94300780913D
:1012A00061019091620120914B0130E0C29FF001F9
:1012B000C39FF00DD29FF00D11248E0D9F1DE80FDE
:1012C000F91F029FD001039FB00D129FB00D112492
:1012D000A80FB91F8C918083C39420914B01C21633
:1012E00048F2E80160914A01862F90E00297C81702
:1012F000D9070CF4B6CF6230E0F1625080E00E9472
:10130000AA0800E010E231C0C02FD0E080914A016D
:1013100090E0029750E0849F9001859F300D949F4C
:10132000300D1124E0916101F0916201EC0FFD1F7D
:10133000E20FF31F80810E94300780914A0190E004
:10134000029740914B0150E0849F9001859F300DA2
:10135000949F300D1124E0916101F0916201EC0F36
:10136000FD1FE20FF31F10830F5F40914B01041725
:1013700058F260914A01615080E00E94AA0810E092
:1013800004C080E20E9430071F5F80914B01181754
:10139000C0F303C04F5F40936301109264018091DA
:1013A0006401609163010E94AA082D2D332727FD57
:1013B0003095C901CDB7DEB7E8E00C9478168130DE
:1013C00011F48FE001C08EE00E942B0708950E9467
:1013D000DF0908958CE00E942B0708950E94EA0916
:1013E00008950F931F93182F062F08C0112311F48F
:1013F00080E101C084E10E942B0701500023B1F776
:101400001F910F9108950E94F10908950F931F9362
:10141000CF93DF93182F062FEA010BC0112311F48D
:1014200088E101C08CE10E942B07CE010E94CE0D05
:101430000150002399F7DF91CF911F910F910895EB
:101440000E94060A089580916101909162010097BF
:1014500011F00E943C1720914A0130E021503040A9
:1014600080914B0190E0AC01249FC001259F900D1D
:10147000349F900D11240E948F16909362018093E7
:101480006101009721F1A0E0B0E208C0E0916101A4
:10149000F0916201E20FF31FB083AF5F2A2F30E0BB
:1014A00080914A0190E0019760914B0170E0869F26
:1014B000A001879F500D969F500D112424173507CA
:1014C0002CF38DEC98E068E976E00E94941708957B
:1014D0000E94230A089580934B0160934A010E9461
:1014E000230A089580934B0160934A010E94230AC6
:1014F0000895FC01118210821382128215821482D7
:101500001682683068F489E290E0918380838BE2F0
:1015100090E0938382838AE290E09583848311C074
:101520006E30C0F483E290E09183808385E290E0A6
:101530009383828384E290E09583848370E0685093
:10154000704081E090E002C0880F991F6A95E2F731
:10155000868308956531B8F486E290E091838083B4
:1015600088E290E09383828387E290E0958384838E
:1015700070E06E50704081E090E002C0880F991FCB
:101580006A95E2F786830895FC01A481B58186817E
:10159000662321F09C91982B9C9308959C918095B3
:1015A00089238C930895FC016F3F31F4A281B381AC
:1015B0008C91968189270CC0A281B3818681662394
:1015C00021F09C91982B9C9308959C918095892360
:1015D0008C930895A7E0B0E0E0EFFAE00C945F167A
:1015E000282FF62E8E010F5F1F4FC801622F0E9419
:1015F000790AC8016F2D0E94D30AC80161E00E94D8
:10160000C40A2796E5E00C947B160895E0EBF0E021
:1016100083EF8083808184BDE1EBF0E082E0808312
:10162000808185BDE4EBF0E010828081E3EBF0E0A7
:101630008083808188BD88B587BD86E060E00E9498
:10164000EA0A85E060E00E94EA0A8BE060E00E941E
:10165000EA0A83E060E00E94EA0A089580916A0144
:10166000882329F481E080936A010E94060B089583
:10167000CF93DF93EC010E942E0BD7FF05C0D095CE
:10168000C195DF4F81E001C080E0CF3FD10519F067
:1016900014F0CFEFD0E0882319F018BCC7BD02C00A
:1016A000C8BD17BCDF91CF9108950E94380B0895F3
:1016B000CF93DF93EC010E942E0BD7FF05C0D0958E
:1016C000C195DF4F81E001C080E0CF3FD10519F027
:1016D00014F0CFEFD0E0882329F01092B400C0932B
:1016E000B30004C0C093B4001092B300DF91CF9157
:1016F00008950E94580B0895CF93DF93EB010E9449
:10170000380BCE010E94580BDF91CF9108950E94B3
:101710007C0B0895089584B18D7C84B985B1826372
:1017200085B985E090E06F9364E06A95F1F76F9179
:101730000197C9F7089580916B01882329F481E00E
:1017400080936B010E948B0B08951F93CF93DF93BF
:10175000182F0E949B0BC12FD0E023B130E02095C1
:1017600030952C233D2321153105B9F38AE090E013
:101770000E94CE0D23B130E0209530952C233D23DF
:101780002115310551F383B180958123DF91CF91EC
:101790001F9108950E94A50B08951F93182F0E9472
:1017A0009B0B83B18123E9F38AE090E00E94CE0D88
:1017B00083B18123B1F383B181231F9108950E94E6
:1017C000CD0B08951F930E94A50B182F0E94CD0BDF
:1017D000812F1F9108950E94E20B0895A1E0B0E0CF
:1017E000E4EFFBE00C94621689830E949B0B93B19B
:1017F0009095898189232196E2E00C947E160E94BF
:10180000EE0B0895BF92CF92DF92EF92FF920F936B
:101810001F93B82EC3B0DC2CD0940E94080E7B011D
:101820008C010E949B0B80917701813021F18130E6
:1018300038F0823009F445C0833009F081C063C0BC
:101840002B2D30E04D2D50E040955095242335232D
:101850002115310509F474C0CB20C0927201E092C9
:101860007301F0927401009375011093760181E089
:101870008093770165C08091730190917401A0916C
:101880007501B0917601E81AF90A0A0B1B0B8FE07B
:10189000E816F1040105110508F452C040917201E7
:1018A0008D2D90E080959095242F30E08223932316
:1018B000009731F182E080937701C422C0927201D7
:1018C0003FC0409172018D2D842371F093E090937D
:1018D000770180937201E0927301F092740100939A
:1018E0007501109376012CC050E08B2D90E02D2DCA
:1018F00030E020953095822393234817590701F152
:10190000109277011DC08091730190917401A09194
:101910007501B0917601E81AF90A0A0B1B0B8FE0EA
:10192000E816F1040105110558F0809172018D212E
:1019300019F01092770105C092E09093770101C0F1
:1019400080E01F910F91FF90EF90DF90CF90BF90BC
:1019500008950E94020C0895CF92DF92EF92FF92B9
:101960000F931F93C82ED3B00E94080E7B018C01E9
:101970000E949B0B80917101813029F1813038F0F8
:10198000823009F447C0833009F083C065C02C2D34
:1019900030E04D2D50E040955095242335232115FE
:1019A000310509F476C0D094DC20D0926C01E0922D
:1019B0006D01F0926E0100936F011093700181E050
:1019C0008093710166C080916D0190916E01A0912C
:1019D0006F01B0917001E81AF90A0A0B1B0B8FE036
:1019E000E816F1040105110508F453C040916C019B
:1019F0008D2D90E080959095242F30E082239323C5
:101A0000009739F182E080937101D094D422D09272
:101A10006C013FC040916C01842F8D2171F093E0E7
:101A20009093710180936C01E0926D01F0926E01D0
:101A300000936F01109370012CC050E08C2D90E04A
:101A40002D2D30E020953095822393234817590798
:101A500001F1109271011DC080916D0190916E0194
:101A6000A0916F01B0917001E81AF90A0A0B1B0BE3
:101A70008FE0E816F1040105110558F080916C0122
:101A80008D2119F01092710105C092E090937101BF
:101A900001C080E01F910F91FF90EF90DF90CF90F9
:101AA00008950E94AC0C08956F9364E06A95F1F775
:101AB0006F910197C9F708952F928F939F932FB637
:101AC0008091790190917A010196809379019093A8
:101AD0007A0190E080917B01891F80937B01909136
:101AE00081019C5F90938101809180018051974298
:101AF000C0F0909381018093800180917C0190914E
:101B00007D01019680937C0190937D0190E080910E
:101B10007E01891F80937E0180917F01891F8093C0
:101B20007F012FBE9F918F912F9018950F931F9338
:101B30006F5F7F4F8F4F9F4F660F771F881F991FD3
:101B400025E030E040E050E00E941516B901CA01DE
:101B50001F910F9108950F931F936F5F7F4F8F4FCA
:101B60009F4F660F771F881F991F25E030E040E0E8
:101B700050E00E941516B901CA011F910F910895F6
:101B8000CF93DF93EC0105C088EE93E00E94540DE3
:101B900021972097C9F7DF91CF9108950E94C00D3A
:101BA0000895E0E7F0E080818E7F8083A0EBB0E0D5
:101BB0008C9183608C93A1EBB0E08C91807F8C93AF
:101BC0008C9182608C93B89A8081816080837894B4
:101BD000089580918201882329F481E08093820115
:101BE0000E94D10D08950E94E90DE0E7F0E08081A8
:101BF0008E7F808320917C0130917D0140917E0118
:101C000050917F01808181608083B901CA0108956C
:101C10000E94F30D08950E94E90D809170008E7F5F
:101C2000809370002091B2008091780190917901A9
:101C3000A0917A01B0917B01B89904C030E040E0F6
:101C400050E011C08091B20020917801309179016B
:101C500040917A0150917B0120503F4F4F4F5F4F91
:101C600090E0A0E0B0E0282B392B4A2B5B2B809131
:101C70007000816080937000B901CA0108950E94CC
:101C80000B0E08950E94E90DE0E7F0E080818E7F61
:101C9000808310927C0110927D0110927E0110923F
:101CA0007F01109281011092800180818160808388
:101CB00008950E94420E08959C01462F83E891E00A
:101CC000B9010E949D12089583E891E00E94D90F06
:101CD000089583E891E00E94BD0F0895682F83E87E
:101CE00091E00E948215089583E891E00E94F40F2C
:101CF00008959C01462F83E891E0B9010E94FC12EF
:101D000008959C01462F83E891E0B90120E00E94EC
:101D1000C01308959C01462F83E891E0B90121E0AA
:101D20000E94C013089580918301909184010895C9
:101D3000809185019091860108958091870190910D
:101D4000880108958091890190918A0108950F93E7
:101D5000DF93CF9300D000D00F92CDB7DEB79C01B8
:101D6000962FDE011196ECE4F1E085E001900D92F2
:101D70008150E1F7BE016F5F7F4F992329F083E81F
:101D800091E045E00FEF04C083E891E045E003E116
:101D90000E943B1083E891E00E94BD0F0E94420E1A
:101DA0000F900F900F900F900F90CF91DF910F91A8
:101DB000089561E00E94A70E089560E00E94A70EBA
:101DC00008959C01462F83E891E0B9010E949D127D
:101DD000089583E891E00E94D90F089583E891E087
:101DE0000E94BD0F089583E891E00E948215089536
:101DF00083E891E00E94F40F089583E891E00E9447
:101E0000FC12089583E891E00E94C0130895809128
:101E100083019091840108958091850190918601BC
:101E2000089580918701909188010895809189019A
:101E300090918A010895089583E891E00E94B81571
:101E400008956F9364E06A95F1F76F910197C9F770
:101E50000895FC011182108213821282158214826D
:101E60001682683068F489E290E0918380838BE287
:101E700090E0938382838AE290E09583848311C00B
:101E80006E30C0F483E290E09183808385E290E03D
:101E90009383828384E290E09583848370E068502A
:101EA000704081E090E002C0880F991F6A95E2F7C8
:101EB000868308956531B8F486E290E0918380834B
:101EC00088E290E09383828387E290E09583848325
:101ED00070E06E50704081E090E002C0880F991F62
:101EE0006A95E2F786830895E091C901F091CA01ED
:101EF000808191810895E091C901F091CA018281A8
:101F000093810895E091C901F091CA01848195817E
:101F10000895E091C901F091CA01868197810895E1
:101F2000A7E0B0E0E6E9FFE00C9460168C01FC014C
:101F300011821082138212821582148217821682F5
:101F4000613118F080E1808702C0FC016087F801F0
:101F5000208BCE010196642F0E94790A8F81F801AF
:101F600081878B819C81938782878D819E819587D4
:101F700084872796E4E00C947C16FC01A485B58543
:101F8000109779F08C919185892B8C93A285B385DC
:101F90009C918185809589238C9388EC90E00E94A8
:101FA000210F08958091C9019091CA010E94BD0F2F
:101FB0000895FC01A485B585109771F08C919185E9
:101FC000892B8C93A285B3858C919185892B8C93D9
:101FD00088EC90E00E94210F08958091C9019091B2
:101FE000CA010E94D90F0895FC0120E039C0808108
:101FF0009181009759F0A22FB0E0AA0FBB1FA80F44
:10200000B91F8685978511969C938E9384819581BF
:10201000009759F0A22FB0E0AA0FBB1FA80FB91F5D
:102020008685978511969C938E93828193810097E4
:1020300049F0A22FB0E0AA0FBB1FA80FB91F11963D
:102040001C921E9286819781009749F0A22FB0E0E2
:10205000AA0FBB1FA80FB91F11961C921E922F5FCB
:102060008085281720F208958091C9019091CA01B6
:102070000E94F40F0895A7E0B0E0E1E4F0E10C94D1
:1020800052167C011B01642F3901402F20E00E9471
:10209000900F97012F5B3F4FF9011082D701AE5B84
:1020A000BF4F1C92C7018D5B9F4FFC011082F7014F
:1020B0007786668666242E010894411C511C6C01AB
:1020C0005D01490129C0062D10E0F101E00FF11F6B
:1020D000C20160810E94790A2F81F701E00FF11F90
:1020E000218B89819A81F801EE0FFF1FEE0DFF1DF4
:1020F00092A381A38332910511F4F40109C08632C1
:10210000910511F4F50104C08932910521F4F6011D
:102110008081822B80836394F7018085681698F212
:102120002796E2E10C946E160F930E943B100F91DC
:102130000895A0E0B0E0EFE9F0E10C945A167C01BC
:10214000162F6A01022F84E490E00E948F16A82EB9
:10215000E5015E01B92EE501209761F0C501B701E7
:10216000412F96010E943B10B092CA01A092C90172
:1021700081E001C080E0CDB7DEB7EAE00C947616CE
:10218000A0E0B0E0E6ECF0E10C945716EC015B0146
:10219000FC01EF5BFF4F9080FC01EE5BFF4F808006
:1021A000FC01ED5BFF4F708080E009C0E82FF0E09C
:1021B000EE0FFF1FEA0DFB1D118210828F5F9885C5
:1021C0008917A0F384B121E4E22EF12CEC0EFD1E60
:1021D000D7019C91892B84B987B18E010E5B1F4F6B
:1021E000F8019081892B87B98AB193E4C92ED12C4B
:1021F000CC0EDD1ED6019C91892B8AB985B1F701E1
:102200009081892B85B988B1D8019C91892B88B997
:102210008BB1F6019081892B8BB98AE090E00E9406
:10222000210F94B1D7018C918095892384B997B1FE
:10223000F80180818095892387B99AB1D6018C9164
:10224000809589238AB995B1F7018081809589238A
:1022500085B998B1D8018C918095892388B99BB1B3
:10226000F6018081809589238BB9C090B000E09001
:10227000B1008091B00083608093B00082E08093D1
:10228000B1000091B20080E090E039C02091B2002E
:10229000201B820F911D020FF3B0F91409F04DC0FD
:1022A00096B0981409F049C029B1271509F045C026
:1022B00024C0212F30E0A901440F551FF501E40F80
:1022C000F51F608171816115710599F44C0F5D1FD7
:1022D000DA0191964D915C919297DA014C912C0F15
:1022E0003D1FD90151962C915197422311F49183AE
:1022F00080831F5F28851217E0F2892C9F2C2E8582
:102300003F858217930710F2C092B000E092B100AF
:1023100020E00FC0E22FF0E0EE0FFF1FEA0DFB1DE3
:1023200080819181009721F48E859F8591838083A0
:102330002F5F8885281770F305C0F3B096B079B089
:1023400010E0D8CFCDB7DEB7EDE00C947316A1E066
:10235000B0E0EDEAF1E10C945C166C01162F642FED
:10236000F22E402F21E079830E94900FF601F1A216
:1023700012A2D60151967981E12FF72F7F01F60144
:10238000808590E041968C0D9D1D21E030E010C0CD
:10239000B701F70141917F014D93A901FB01008035
:1023A00002C0440F551F0A94E2F7412BF60142A3E5
:1023B000F60112A1A817B90759F71F7312A38FEFDF
:1023C00093E0978786872196E8E00C9478160F9320
:1023D0000E94A7110F910895AF92BF92DF92EF92E2
:1023E000FF920F931F93CF93DF937C01D62E142F70
:1023F000022F83E290E00E948F16A82EE5015E0175
:10240000B92EE501209761F0C501B7014D2D212FAF
:102410000E94A711B092CA01A092C90181E001C037
:1024200080E0DF91CF911F910F91FF90EF90DF90AF
:10243000BF90AF900895EF92FF920F931F93CF93A9
:10244000DF93FC019B0100917C0010917A00E7B0C2
:10245000F8B080917A0086FDFCCF80E00AC0A82FFA
:10246000B0E0AA0FBB1FA20FB31F11961C921E92C1
:102470008F5F9085891798F397B182A18095892302
:1024800087B998B182A18095892388B987E880931C
:102490007A0070E029C0DF01A60FB11D51968C9122
:1024A0005197806480937C0080917A00806480934F
:1024B0007A0080917A0086FDFCCFA62FB0E0AA0FAB
:1024C000BB1FA20FB31F40917800509179008D91EE
:1024D0009C911197840F951F11969C938E936F5F1B
:1024E00080856817C0F27F5F81A1781710F460E0E3
:1024F000F7CF40E014C0C42FD0E0CC0FDD1FC20FD7
:10250000D31F61A170E0CB0195958795A881B98112
:102510008A0F9B1F0E940116798368834F5F808515
:10252000481748F300937C0010937A00F8B8E7B896
:10253000CDB7DEB7E6E00C947A16A0E2B0E0E3EAAD
:10254000F2E10C945D168C017B01D42E842F815016
:10255000823018F4C8010E94D90FD80150968C918E
:102560005097882389F4C801B7010E94C010C801A0
:102570000E94BD0FBD2DB230D9F5C801BE016F5FFD
:102580007F4F0E94C01010C0C801B7010E941B12EB
:10259000C8010E94BD0FED2DE23051F5C801BE010A
:1025A0006F5F7F4F0E941B1260E0AE014F5F5F4F75
:1025B0001BC0862F90E0880F991FF701E80FF91FC5
:1025C000840F951FD8011E962D913C911F97DC0119
:1025D0008D919C911197281B390B80819181820FDD
:1025E000931F918380836F5FF8018085681708F3DC
:1025F000A096E7E00C9479168F929F92AF92BF92CB
:10260000CF92DF92FF920F931F93CF93DF93EC0152
:10261000C62E072FF42E423011F0FF2051F48C818A
:102620009D81009709F4A0C08E819F81009709F4D5
:102630009BC08F2D8150823050F488819981009702
:1026400009F492C08A819B81009709F48DC0CE0164
:102650006C2D702F4F2D0E949D12AC2CB02E00E0DF
:1026600010E0882499247AC08F2D813059F4EA81B2
:10267000FB81E00FF11FC080D180E881F981E00F7C
:10268000F11F0DC08C819D81FF2061F4EE81FF81DF
:10269000E00FF11FC080D180800F911FFC014081AD
:1026A00051812BC0800F911FFC0180819181E881B5
:1026B000F981E00FF11F40815181CE84DF848417BE
:1026C000950710F4A60104C04C0D5D1D481B590B65
:1026D000EE81FF81E00FF11F80819181EA81FB8112
:1026E000E00FF11F20813181CE84DF8482179307B0
:1026F00020F0C20ED31EC81AD90AC41AD50AD1F0C6
:10270000F5016081718180E090E09A0140E050E045
:10271000621B730B840B950B28EE33E040E050E016
:102720000E94D615960140E050E00E94371637FD12
:102730000AC002C020E030E0F3E0293E3F072CF061
:1027400028EE33E002C020E030E0F5012193319320
:102750005F010894811C911C0E5F1F4F888590E0DB
:10276000881699060CF480CFDF91CF911F910F91BD
:10277000FF90DF90CF90BF90AF909F908F90089583
:10278000A5E0B0E0E6ECF3E10C9452164C01C62E45
:10279000E72E2D830E94FC12D40118964C901897B6
:1027A000DE2C642D70E080E090E028EE33E040E025
:1027B00050E00E94D61569837A838B839C83EE2434
:1027C000FF24870166247724882499245401552402
:1027D00036C0F6013081218142E0242E312CC20C1A
:1027E000D31CC901492F582F1A012D81222329F00A
:1027F00088EE93E0821993091C0199EC29163104A3
:102800002CF4A3E32A16310494F002C05524539407
:10281000B101882777FD8095982FA80197010E9424
:10282000D615860E971EA81EB91E620C731C88EE64
:1028300093E0A0E0B0E0E80EF91E0A1F1B1F89819B
:102840009A81AB81BC81E816F9060A071B0709F6D5
:102850005520F1F4552408944108510824EF31E043
:10286000429EC001439E900D529E900D11242091D6
:10287000C7013091C80128173907B4F088EE93E0FA
:10288000489E9001499E300D589E300D11240EC077
:10289000930140E050E0C501B4010E941516209359
:1028A000C7013093C80102C020E030E0C90125967D
:1028B000E2E10C946E169C01462F8091C901909123
:1028C000CA01B90121E00E94C01308959C01462F5E
:1028D0008091C9019091CA01B90120E00E94C01302
:1028E00008959C01462F8091C9019091CA01B901B8
:1028F0000E94FC120895A7E6B0E0E1E8F4E10C9430
:1029000052168C014B016A01A6962FAFA697DA01E9
:102910008D919C9111970097E9F4F801808590E0E2
:10292000880F991F0E948F16D60111969C938E9343
:10293000009709F4E2C0FC0180E090E003C011922E
:1029400011920196D80118962C91189730E08217B1
:102950009307ACF3F40180819181009789F0EE2414
:10296000FF245E010894A11CB11CB1E46B2E712CF4
:102970006C0E7D1EA1E24A2E512C4C0E5D1E23C012
:10298000D80118968C9190E0880F991F0E948F169D
:10299000F40191838083009709F4AFC0FC0180E0CB
:1029A00090E0D80107C01E962D913C911F9721936E
:1029B0003193019618962C91189730E0821793075F
:1029C00094F38D01CCCFC801B501A6964FADA69763
:1029D0000E949D12D80118968C911897E82FF0E06C
:1029E000A596FFAFEEAFA5971301F501A3965FAED5
:1029F0004EAEA397930140E050E0A8965FAE4EAE76
:102A0000A89737C0E114F10461F0A896AEADBFAD50
:102A1000A8976D917C9111978081918168177907B2
:102A200060F480819181A896AEADBFADA897119654
:102A30009C938E93E114F10449F0D9016D917C913E
:102A40001197808191818617970728F48081918161
:102A5000D9018D939C934F5F5F4F2E5F3F4F32960E
:102A6000A8968EAD9FADA8970296A8969FAF8EAF01
:102A7000A897A596AEADBFADA5974A175B0714F210
:102A80000894E11CF11CBAE0EB16F10409F09BCFAD
:102A900080E090E02CC0F101419151911F01BC01F7
:102AA000660F771FD601ED91FC911197E60FF71F86
:102AB000208131812417350710F451834083A39678
:102AC000EEADFFADA39741915191A396FFAFEEAF4D
:102AD000A397D401ED91FC911197E60FF71F208188
:102AE00031814217530710F4518340830196F80156
:102AF000208530E08217930774F2C959DF4FE2E175
:102B00000C946E161F93CF93DF93EC01162F862F34
:102B10008150823058F4AE014E5F5F4FCE01BE014E
:102B200021E00E947B14123019F00CC0662351F48E
:102B3000BE016C5F7F4FAE014A5F5F4FCE0120E068
:102B40000E947B14DF91CF911F910895682F80918F
:102B5000C9019091CA010E94821508959C01462FD7
:102B60008091C9019091CA01B9010E949D120895F6
:102B7000CF93DF93EC018A819B81009711F00E9433
:102B80003C178E819F81009711F00E943C1788812D
:102B90009981009711F00E943C178C819D810097CC
:102BA00011F00E943C17DF91CF910895629FD001F0
:102BB000739FF001829FE00DF11D649FE00DF11DF8
:102BC000929FF00D839FF00D749FF00D659FF00DA7
:102BD0009927729FB00DE11DF91F639FB00DE11D94
:102BE000F91FBD01CF0111240895991B79E004C09C
:102BF000991F961708F0961B881F7A95C9F780953C
:102C00000895AA1BBB1B51E107C0AA1FBB1FA61733
:102C1000B70710F0A61BB70B881F991F5A95A9F785
:102C200080959095BC01CD010895A1E21A2EAA1BB2
:102C3000BB1BFD010DC0AA1FBB1FEE1FFF1FA2176C
:102C4000B307E407F50720F0A21BB30BE40BF50B69
:102C5000661F771F881F991F1A9469F760957095F2
:102C6000809590959B01AC01BD01CF01089597FB24
:102C7000092E05260ED057FD04D0D7DF0AD0001C40
:102C800038F450954095309521953F4F4F4F5F4F09
:102C90000895F6F790958095709561957F4F8F4FC9
:102CA0009F4F08952F923F924F925F926F927F9223
:102CB0008F929F92AF92BF92CF92DF92EF92FF924C
:102CC0000F931F93CF93DF93CDB7DEB7CA1BDB0BF8
:102CD0000FB6F894DEBF0FBECDBF09942A8839889D
:102CE00048885F846E847D848C849B84AA84B984A4
:102CF000C884DF80EE80FD800C811B81AA81B981B0
:102D0000CE0FD11D0FB6F894DEBF0FBECDBFED01C3
:102D10000895EE0FFF1F0590F491E02D0994CF93D5
:102D2000DF93BC018230910510F462E070E0A09165
:102D3000D701B091D801ED01E0E0F0E040E050E0D3
:102D400021C0888199818617970769F48A819B81C0
:102D5000309719F09383828304C09093D8018093B5
:102D6000D701FE0134C06817790738F441155105C1
:102D700019F08417950708F4AC01FE018A819B8144
:102D80009C01E9012097E9F641155105A9F1CA0115
:102D9000861B970B049708F4BA01E0E0F0E02AC024
:102DA0008D919C91119784179507F9F46417750715
:102DB00081F412968D919C911397309719F093831B
:102DC000828304C09093D8018093D701FD0132968D
:102DD0004FC0CA01861B970BFD01E80FF91F6193D5
:102DE000719302978D939C9343C0FD0182819381DF
:102DF0009C01D9011097A1F68091D5019091D6013F
:102E0000892B41F480915301909154019093D60104
:102E10008093D501409155015091560141155105BE
:102E200041F44DB75EB78091510190915201481B1A
:102E3000590B2091D5013091D60124173507B0F4F4
:102E4000CA01821B930B8617970780F0AB014E5F78
:102E50005F4F8417950750F0420F531F5093D601D0
:102E60004093D501F9016193719302C0E0E0F0E075
:102E7000CF01DF91CF910895CF93DF93009709F4AD
:102E800050C0EC0122971B821A82A091D701B09109
:102E9000D801109709F140E050E0AC17BD0708F1E8
:102EA000BB83AA83FE0121913191E20FF31FAE177C
:102EB000BF0779F48D919C911197280F391F2E5FD0
:102EC0003F4F3983288312968D919C9113979B8352
:102ED0008A834115510571F4D093D801C093D7016D
:102EE00020C012968D919C911397AD01009711F01F
:102EF000DC01D3CFFA01D383C28321913191E20F58
:102F0000F31FCE17DF0769F488819981280F391FD5
:102F10002E5F3F4FFA01318320838A819B81938307
:102F20008283DF91CF9108950F931F93CF93DF9307
:102F30008C01EB01009731F46115710519F420E063
:102F400030E038C081E090E06EE070E00E94D2197D
:102F5000FC019C01009771F180E88383209771F058
:102F6000D387C28781E883838091D9019091DA0168
:102F7000892B21F4F093DA01E093D90101151105B1
:102F8000C9F0118700878381826083838091DB0190
:102F90009091DC01892B71F4F093DC01E093DB016B
:102FA0008091DD019091DE01892B21F4F093DE0107
:102FB000E093DD01C901DF91CF911F910F91089539
:102FC000A0E0B0E0E6EEF7E10C946216FE01359663
:102FD000619171918091DB019091DC01AF010E94C0
:102FE000F5172096E2E00C947E16ABE0B0E0EBEF34
:102FF000F7E10C9452163C012B015A01FC01178297
:103000001682838181FD03C06FEF7FEFC6C19AE016
:10301000892E1E010894211C311CF3012381F20129
:1030200023FD859123FF81912F01882309F4B2C1EB
:10303000853239F423FD859123FF81912F0185325B
:1030400029F490E0B3010E940B1AE7CF982FFF24D8
:10305000EE249924FFE1FF15D0F09B3269F09C32F9
:1030600028F4903259F0933291F40EC09D3249F019
:10307000903369F441E024C052E0F52A84E0F82A54
:1030800028C098E0F92A25C0E0E1FE2A22C0F7FC1A
:1030900029C0892F80538A3070F4F6FE05C0989CB1
:1030A000902C1124980E15C0E89CE02C1124E80EF9
:1030B000F0E2FF2A0EC09E3229F4F6FC6BC140E418
:1030C000F42A07C09C3619F450E8F52A02C0983655
:1030D00049F4F20123FD959123FF91912F0199234A
:1030E00009F0B8CF892F8554833018F0805283308F
:1030F00038F444E050E0A40EB51E5FE359830FC0DE
:10310000933631F0933779F0933509F056C020C0EB
:10311000F5018081898342E050E0A40EB51E610173
:1031200001E010E012C0F501C080D180F6FC03C0C0
:103130006FEF7FEF02C0692D70E042E050E0A40E17
:10314000B51EC6010E94001A8C015FE7F52214C06B
:10315000F501C080D180F6FC03C06FEF7FEF02C0A5
:10316000692D70E042E050E0A40EB51EC6010E9439
:10317000EE198C0150E8F52AF3FE07C01AC080E270
:1031800090E0B3010E940B1AEA948E2D90E008178C
:103190001907A8F30EC0F601F7FC8591F7FE81919F
:1031A0006F0190E0B3010E940B1AE110EA94015004
:1031B00010400115110579F7EAC0943611F09936DF
:1031C00069F5F7FE08C0F501208131814281538104
:1031D00084E090E00AC0F501808191819C01442740
:1031E00037FD4095542F82E090E0A80EB91E9FE66F
:1031F000F92257FF09C050954095309521953F4FD2
:103200004F4F5F4FE0E8FE2ACA01B901A1012AE051
:1032100030E00E94371AD82ED21840C0953729F4D2
:103220001F2D1F7E2AE030E01DC01F2D197F9F3605
:1032300061F0903720F4983509F0ACC00FC090379A
:1032400039F0983709F0A6C004C028E030E00AC081
:10325000106114FD146020E130E004C014FD16601C
:1032600020E132E017FF08C0F501608171818281A1
:10327000938144E050E008C0F50180819181BC0158
:1032800080E090E042E050E0A40EB51EA1010E9453
:10329000371AD82ED2188FE7F82EF122F6FE0BC07F
:1032A0005EEFF522D91438F4F4FE07C0F2FC05C035
:1032B0008FEEF82202C01D2D01C0192DF4FE0DC0A5
:1032C000FE01ED0DF11D8081803319F499EEF92294
:1032D00008C01F5FF2FE05C003C08F2D867809F07D
:1032E0001F5F0F2DF3FC14C0F0FE0FC01E1510F071
:1032F0009D2C0BC09D2C9E0C911A1E2D06C080E2A9
:1033000090E0B3010E940B1A1F5F1E15C0F304C0AA
:103310001E1510F4E11A01C0EE2404FF0FC080E373
:1033200090E0B3010E940B1A02FF1DC001FD03C013
:1033300088E790E00EC088E590E00BC0802F86788B
:1033400091F001FF02C08BE201C080E2F7FC8DE248
:1033500090E0B3010E940B1A06C080E390E0B30135
:103360000E940B1A9A94D914C0F3DA94F101ED0D6E
:10337000F11D808190E0B3010E940B1ADD20A9F7B6
:1033800006C080E290E0B3010E940B1AEA94EE209E
:10339000C1F743CEF30166817781CB012B96E2E141
:1033A0000C946E160F931F93CF93DF93689F800149
:1033B000699F100D789F100D1124C8010E948F166F
:1033C000EC01009729F060E070E0A8010E94F91973
:1033D000CE01DF91CF911F910F910895FC010590CF
:1033E000615070400110D8F7809590958E0F9F1F07
:1033F0000895DC0101C06D9341505040E0F70895FD
:10340000FC016150704001900110D8F780959095B3
:103410008E0F9F1F08950F931F93CF93DF938C01FF
:10342000EB018B8181FF1BC082FF0DC02E813F818C
:103430008C819D812817390764F4E881F981019313
:10344000F983E88306C0E885F985802F0995892BE3
:1034500031F48E819F8101969F838E8302C00FEF8E
:103460001FEFC801DF91CF911F910F910895FA01CD
:10347000AA27283051F1203181F1E8946F936E7FB3
:103480006E5F7F4F8F4F9F4FAF4FB1E03ED0B4E0A4
:103490003CD0670F781F891F9A1FA11D680F791FE5
:1034A0008A1F911DA11D6A0F711D811D911DA11DF6
:1034B00020D009F468943F912AE0269F1124301906
:1034C000305D3193DEF6CF010895462F4770405DA1
:1034D0004193B3E00FD0C9F7F6CF462F4F70405D50
:1034E0004A3318F0495D31FD4052419302D0A9F7AB
:1034F000EACFB4E0A6959795879577956795BA95A5
:10350000C9F700976105710508959B01AC010A2E6A
:1035100006945795479537952795BA95C9F7620F41
:10352000731F841F951FA01D089510E0CAE6D0E008
:1035300004C0FE010E948B162296CC36D107C9F733
:04354000F894FFCF2D
:10354400466F6C6C6F770050726573732042004F46
:103554006E776172642100456E64005475726E006A
:10356400542D4A756E63000101040400D007F40170
:103574000F009C01B501CF01EA01070226024702B0
:1035840069028E02B502DE020A0302080E0F101150
:08359400122000DF010000001D
:00000001FF
