:100000000C9436000C945E000C945E000C945E0020
:100010000C945E000C945E000C945E000C945E00E8
:100020000C945E000C94B10A0C945E000C945E007B
:100030000C945E000C9436040C945E000C945E00EC
:100040000C945E000C945E000C945E000C945E00B8
:100050000C945E000C945E000C945E000C945E00A8
:100060000C945E000C945E00700C710C11241FBE89
:10007000CFEFD8E0DEBFCDBF11E0A0E0B1E0EEEE03
:10008000FFE202C005900D92A034B107D9F711E04C
:10009000A0E4B1E001C01D92AC3BB107E1F710E074
:1000A000CAE6D0E004C02297FE010E94E013C836E1
:1000B000D107C9F70E9466000C9462010C940000FD
:1000C000809110018F5F809310010895EF92FF924D
:1000D0000F931F93DF93CF93CDB7DEB72A970FB659
:1000E000F894DEBF0FBECDBF0E94CE0800D080E0E6
:1000F00091E0EDB7FEB7928381830E9435150F9092
:100100000F9080E061E00E94300700D085E091E030
:10011000EDB7FEB7928381830E9435150F900F9043
:1001200088E893E10E94320C80E10E9440097E0140
:100130000894E11CF11C0DE011E082E00E945409DA
:10014000882309F066C00E944206C70162E00E944F
:10015000B10B00D000D0EDB7FEB7128301838F81C1
:100160009885948383830E9435152F813885C90132
:1001700001970F900F900F900F908E559140C0F106
:1001800041E02A3A340708F455C082E02E3038079F
:1001900008F458C0E2E02B383E0708F45BC0F2E0F8
:1001A0002F3E3F0708F45EC043E0293E340708F4C1
:1001B00061C085E02D3D380708F464C0E7E0213DCB
:1001C0003E0708F467C0FBE025353F0708F46AC026
:1001D00040E12B39340708F46DC02958334178F4D5
:1001E00086E091E062E370E048E00E948C0207C084
:1001F00082ED91E062E370E048E00E948C028EE1C3
:1002000090E00E94230B82E00E945409882309F4A5
:100210009ACF0E94D80480E090E02A960FB6F89416
:10022000DEBF0FBECDBFCF91DF911F910F91FF9029
:10023000EF90089588EB91E062E370E048E00E945F
:100240008C02DDCF8FE991E062E370E048E00E942C
:100250008C02D5CF88E891E062E370E048E00E942C
:100260008C02CDCF82E791E062E370E048E00E942B
:100270008C02C5CF8EE591E062E370E048E00E9419
:100280008C02BDCF8AE491E062E370E048E00E9416
:100290008C02B5CF87E391E062E370E048E00E9412
:1002A0008C02ADCF86E291E062E370E048E00E940C
:1002B0008C02A5CF85E191E062E370E048E00E9406
:1002C0008C029DCFF8940C94EA1790914501E0912F
:1002D0004101F0914201992311F0849101C0808184
:1002E000282F21542A3110F4805E0895803271F451
:1002F0002091410130914201A9014F5F5F4F50931E
:100300004201409341012115310509F70895EF920B
:10031000FF92CF93DF930E946501C0E0D0E01BC045
:100320009E01220F331F93E0CC0FDD1F9A95E1F75A
:10033000C20FD31F992787FD9095C80FD91FE0974B
:1003400080914101909142010196909342018093E6
:1003500041010E946501982F90539A3008F3CE0115
:10036000DF91CF91FF90EF900895089510926F0064
:1003700083E28093800081E180938100109282006B
:1003800080E197E2909389008093880010928B001F
:1003900010928A00229A78940895809140018823CF
:1003A00029F481E0809340010E94B6010895A0E005
:1003B000B0E0EDEDF1E00C94AD138C015B01E42EA7
:1003C0000E94CD011092110117FF04C01F77AAE00F
:1003D000FA2E02C0FF24F394C0908100DD2428EFA0
:1003E000C222DD2488EC3F2D389FC00111248017E4
:1003F0009107D8F4E80167E20131160710F0C0E177
:10040000D7E2BE017695679580E090E06058794626
:1004100087469F4F9E0140E050E00E946A13890189
:1004200081E090E0C82AD92A2CC098E2F99E902D4C
:10043000112480E0892EE4014E01982EE4018016FB
:10044000910608F4E801BE01769567959E0140E0AB
:1004500050E08F2D8A3039F480E090E0605E734484
:1004600081449F4F06C080E090E060537D4E8C4EEB
:100470009F4F0E946A13890152E0852E912CC82853
:10048000D9282F2D2A3039F4CE0105966AE070E084
:100490000E945613EB0133E0C83ED30779F0BE014A
:1004A00080E090E0950140E050E00E942B1328EEA0
:1004B00033E040E050E00E948C1301C0950110929F
:1004C0006F00C092810010938900009388004091D2
:1004D0008800509189006E2D603108F06FE080E156
:1004E00090E0861B9109BA0102C0769567958A95BE
:1004F000E2F770938B0060938A0030934801209359
:10050000470186B38FEF86BB81E080936F00CDB744
:10051000DEB7ECE00C94C9130E94D70108959B014B
:100520008F3F11F0442329F488EE93E0B90140E0B5
:1005300049C0813130F0582F5051503618F05FE5E6
:1005400001C050E0852F6CE00E944A13A82FB0E054
:10055000E4EFFFEFAE9FB001AF9F700DBE9F700D37
:100560001124650F711D6C30710540F4FB01EE0F15
:10057000FF1FE55EFE4F6081718102C060E070E0A8
:10058000873081F0082E02C0660F771F0A94E2F7C9
:10059000823028F0CB0105966AE070E00CC0605014
:1005A00070480BC0CB01B6E0880F991FBA95E1F7F0
:1005B000029665E070E00E945613403108F04FE06B
:1005C000CB01B9010E94D7010895A0E0B0E0EBEEA5
:1005D000F2E00C94AC13B090120180914301882397
:1005E00061F060914401662341F08FEF70E040E0DC
:1005F0000E948F021092440134C1C0ECDDE5AA24B0
:10060000A39414E0712E00ED17E0B4E0EB2EF12C72
:10061000A4EFCA2EA1E0DA2EFFE08F2E912C0E94CB
:10062000650120914101309142012F5F3F4F30938E
:100630004201209341018636F1F18736CCF48236AF
:1006400009F4AFC083367CF48E3349F18F333CF428
:10065000813209F487C08C3309F09BC022C08136F7
:1006600009F097C09BC0843601F185360CF51BC09C
:100670008F3609F447C0803744F48C3611F18D363B
:1006800061F1873609F085C019C0843709F444C088
:10069000863709F460C0823709F07BC039C0B39453
:1006A000BECFBA94BCCFEE2435C0EE2482E07BC02E
:1006B000EE2484E078C0EE2485E075C0EE2487E067
:1006C00072C00E948701BC019093140180931301B2
:1006D000809115019091160137C00E9465018C36FA
:1006E00019F41092430104C0A092430110924401F6
:1006F0008091410190914201019690934201809333
:1007000041018DCF0E948701B82E8093120187CFBF
:10071000EE24E39480E047C00E948701BC01CE0133
:100720000E945613CB01880F991F53E0660F771F65
:100730005A95E1F7860F971F909316018093150144
:1007400060911301709114010E9456137093180167
:100750006093170164CF0E94870190931A018093E0
:1007600019015DCF709212011093160100931501CB
:10077000F0921401E0921301D0921801C092170177
:1007800090921A01809219011092430144E0B42E14
:1007900046CF109242011092410163C0EE2489E0DD
:1007A00002C0EE248BE09CE0B99EB02C1124B80E60
:1007B0000E9465018B3211F08332B9F480914101BE
:1007C0009091420101969093420180934101B3942C
:1007D000EFCF8091410190914201019690934201A7
:1007E00080934101BA940E9465018D3291F3C091CA
:1007F0001701D09118018153883058F4C091150128
:10080000D09116010E948701BC01CE010E945613AF
:10081000EB018E010BC08091410190914201019644
:100820009093420180934101C00FD11F1695079507
:100830000E9465018E3279F380914301882339F05B
:10084000CE019695879580934401C81BD109EE206F
:1008500011F0BB24BA948B2DBE01409119010E9466
:100860008F02CDB7DEB7EDE00C94C8131F920F9244
:100870000FB60F9211242F933F934F935F936F9373
:100880007F938F939F93AF93BF93EF93FF93809149
:100890004701909148019C0121503040309348011C
:1008A00020934701009711F510926F007894809182
:1008B0008100887F81608093810080E197E290933E
:1008C00089008093880010928B0010928A0081E04A
:1008D000809311018091410190914201009731F084
:1008E00080914601882311F40E94E502FF91EF9167
:1008F000BF91AF919F918F917F916F915F914F9138
:100900003F912F910F900FBE0F901F9018950E944E
:100910008F02089580911101882351F081E0209188
:100920004101309142012115310519F480E008950B
:1009300081E008950E948A04089510926F009093B8
:1009400042018093410110924501109244010E949E
:10095000E50208950E949D04089510926F009093FF
:1009600042018093410181E080934501109244014E
:100970000E94E50208950E94AD04089510926F0050
:10098000E1E8F0E08081887F8160808380E197E208
:10099000909389008093880010928B0010928A00B7
:1009A00081E080931101109242011092410108955B
:1009B0000E94BE04089580911101882341F0809126
:1009C000410190914201009711F00E94E50281E0FF
:1009D00020914101309142012115310509F480E057
:1009E000089580934601882311F40E94DB04089542
:1009F0000E94F10408950E94DB04089580E090E0D5
:100A0000089581E090E06F9364E06A95F1F76F914B
:100A10000197C9F7089508950F931F93CF93DF931C
:100A20001AB157985A98289AC0E0D0E00E94010560
:100A30005C9A0E94010509B15C980E9401055C9ACC
:100A40000E9401055C9807FF11C024969E0140E0BA
:100A500050E080914D0190914E01A0914F01B091D5
:100A60005001281739074A075B0700F31AB9DF91CD
:100A7000CF911F910F91089565B190E0AC01417045
:100A80005070440F551F9C012670307053E0220FA8
:100A9000331F5A95E1F7242B6D7C262B25B92BB1FA
:100AA0008870907034E0880F991F3A95E1F72F779E
:100AB000282B2BB95C9A0E9401055C980E940105C5
:100AC0000895A2E0B0E0E7E6F5E00C94B213182F29
:100AD0004A8369830E940C060E940C05F4B005B19C
:100AE000DAB0EBB0289869814A81662311F05A9AEE
:100AF00001C05A9884B1826384B9579A413029F071
:100B0000812F82958F700E943C05812F8F700E94EB
:100B10003C05DAB8EBB8F4B805B92296E7E00C94D6
:100B2000CE1360E042E00E946105089561E042E07A
:100B30000E9461050895EF92FF921F93DF93CF9378
:100B40000F92CDB7DEB7660F660F660F482F592F8D
:100B50007A0110E0812F860F806469830E949105DD
:100B6000F70184910E9496051F5F0894E11CF11C17
:100B70006981183079F70F90CF91DF911F91FF9025
:100B8000EF9008950E949B0508950E949605089590
:100B900060E041E00E946105089580E197E2A0E0F5
:100BA000B0E080934D0190934E01A0934F01B0931C
:100BB0005001529A209A549A8EE190E00E94230BA1
:100BC00083E00E94C80586E090E00E94230B83E04A
:100BD0000E94C80582E090E00E94230B83E00E94FF
:100BE000C80582E090E00E94230B82E00E94C805C5
:100BF00082E090E00E94230B88E20E94910588E049
:100C00000E94910581E00E94910586E00E94910575
:100C10008CE00E949105089580915101882329F468
:100C200081E0809351010E94CD05089581E00E94EA
:100C300091058091490190914A01009711F1A0E03E
:100C4000B0E208C0E0914901F0914A01E20FF31FC0
:100C5000B083AF5F2A2F30E08091330190E001979D
:100C60006091340170E0869FA001879F500D969F90
:100C7000500D1124241735072CF310924C011092BB
:100C80004B0108950E94160608950E949605089546
:100C9000EF92FF92CF93DF93E82EE7017E01F92ECA
:100CA000E70102C00E94960589918823D9F7DF9158
:100CB000CF91FF90EF9008950E9448060895CF933A
:100CC000DF93EC0103C00E9496052196FE018491FA
:100CD0008823C9F7DF91CF9108950E945F06089598
:100CE0000E9448060895AAE0B0E0E9E7F6E00C9417
:100CF000AF139B01AC011AE0EAE0CE2ED12CE12C1F
:100D0000F12C5E010894A11CB11C022FCA01B9018B
:100D1000A70196010E946A131150F501E10FF11D20
:100D2000005D922F990F892F880F880F890F081B5C
:100D30000083211531054105510539F708C0F60139
:100D4000E10FF11D80810E9496051F5F04C06E01B6
:100D50000894C11CD11C1A3090F32A96EAE00C9436
:100D6000CB13EF92FF920F931F937B018C0197FFA0
:100D70000BC010950095F094E094E11CF11C011D4E
:100D8000111D8DE20E949605C801B7010E947306ED
:100D90001F910F91FF90EF9008950E94B106089562
:100DA0000E94730608958A3010F4805D01C0895C4A
:100DB0000E94960508951F93182F82958F700E94A8
:100DC000D306812F8F700E94D3061F9108951F9321
:100DD000182F892F0E94DB06812F0E94DB061F91AE
:100DE00008950E94E70608950E94DB060895FF9289
:100DF0000F931F93F82E08E010E8812F8F2111F038
:100E000081E301C080E30E949605015011F0169520
:100E1000F4CF1F910F91FF9008950E94F706089557
:100E2000A5E0B0E0E6E1F7E00C94B613182F80E8F7
:100E3000898380EC8A8384E98B8384ED8C83FE0133
:100E4000E60FF11D8181810F6D830E949105109342
:100E50004C016D8160934B012596E3E00C94D21315
:100E60000E9410070895A0E0B0E0E9E3F7E00C94D9
:100E7000B113D82E8091490190914A01009709F44D
:100E8000FAC02D2D2A3009F443C02830C9F48091CE
:100E90004C01815080934C018F3F51F480914B0164
:100EA000815080934B0180913401815080934C019B
:100EB00080914B018F3F09F0D8C010924B01D3C0F5
:100EC0008D2D0E94960580914B018823B9F090E00A
:100ED00001974091340150E0849F9001859F300D2F
:100EE000949F300D112480914C01E0914901F091C3
:100EF0004A01E20FF31FE80FF11DD08280914C01EF
:100F00008F5F80934C0190913401891709F0B3C031
:100F100040914B01242F30E08091330190E0019704
:100F20002817390709F09CC0C0E0D0E041C080E03C
:100F30006C2F0E941007CC248E010F5F1F4F33C00F
:100F4000EC2CFF2430E0C29FC001C39F900DD29FC4
:100F5000900D1124E0914901F0914A01EE0DFF1D21
:100F6000E80FF91F80810E949605809149019091B8
:100F70004A012091340130E0C29FF001C39FF00D7F
:100F8000D29FF00D11248E0D9F1DE80FF91F029FB7
:100F9000D001039FB00D129FB00D1124A80FB91FEF
:100FA0008C918083C39420913401C21648F2E801E9
:100FB00060913301862F90E00297C817D9070CF48F
:100FC000B6CF6230E0F1625080E00E94100700E08E
:100FD00010E231C0C02FD0E08091330190E0029741
:100FE00050E0849F9001859F300D949F300D112417
:100FF000E0914901F0914A01EC0FFD1FE20FF31F50
:1010000080810E9496058091330190E00297409183
:10101000340150E0849F9001859F300D949F300DE6
:101020001124E0914901F0914A01EC0FFD1FE20FFC
:10103000F31F10830F5F40913401041758F2609141
:101040003301615080E00E94100710E004C080E28C
:101050000E9496051F5F809134011817C0F303C0EA
:101060004F5F40934B0110924C0180914C01609175
:101070004B010E9410072D2D332727FD3095C90104
:10108000CDB7DEB7E8E00C94CD13813011F48FE0DA
:1010900001C08EE00E94910508950E9445080895C0
:1010A0008CE00E94910508950E94500808950F93C6
:1010B0001F93182F062F08C0112311F480E101C0DF
:1010C00084E10E94910501500023B1F71F910F9117
:1010D00008950E94570808950F931F93CF93DF93AD
:1010E000182F062FEA010BC0112311F488E101C06B
:1010F0008CE10E949105CE010E94230B0150002338
:1011000099F7DF91CF911F910F9108950E946C087C
:1011100008958091490190914A01009711F00E9431
:1011200091142091330130E02150304080913401FE
:1011300090E0AC01249FC001259F900D349F900D3D
:1011400011240E94E41390934A018093490100976F
:1011500021F1A0E0B0E208C0E0914901F0914A011C
:10116000E20FF31FB083AF5F2A2F30E0809133018D
:1011700090E001976091340170E0869FA001879F05
:10118000500D969F500D1124241735072CF383E33F
:1011900097E06EEF74E00E94E91408950E948908B8
:1011A000089580933401609333010E948908089563
:1011B00080933401609333010E9489080895089553
:1011C00084B18D7C84B985B1826385B985E090E076
:1011D0006F9364E06A95F1F76F910197C9F70895ED
:1011E00080915201882329F481E0809352010E946A
:1011F000E00808951F93CF93DF93182F0E94F00803
:10120000C12FD0E023B130E0209530952C233D2331
:1012100021153105B9F38AE090E00E94230B23B138
:1012200030E0209530952C233D232115310551F3D5
:1012300083B180958123DF91CF911F9108950E9402
:10124000FA0808951F93182F0E94F00883B1812394
:10125000E9F38AE090E00E94230B83B18123B1F38C
:1012600083B181231F9108950E94220908951F933D
:101270000E94FA08182F0E942209812F1F910895B9
:101280000E9437090895A1E0B0E0E9E4F9E00C9488
:10129000B71389830E94F00893B1909589818923BF
:1012A0002196E2E00C94D3130E9443090895BF9263
:1012B000CF92DF92EF92FF920F931F93B82EC3B09D
:1012C000DC2CD0940E945D0B7B018C010E94F00805
:1012D00080915E01813021F1813038F0823009F453
:1012E00045C0833009F081C063C02B2D30E04D2D07
:1012F00050E040955095242335232115310509F4FC
:1013000074C0CB20C0925901E0925A01F0925B0167
:1013100000935C0110935D0181E080935E0165C0E4
:1013200080915A0190915B01A0915C01B0915D01A7
:10133000E81AF90A0A0B1B0B8FE0E816F104010505
:10134000110508F452C0409159018D2D90E080950F
:101350009095242F30E082239323009731F182E08F
:1013600080935E01C422C09259013FC0409159014F
:101370008D2D842371F093E090935E018093590149
:10138000E0925A01F0925B0100935C0110935D01C1
:101390002CC050E08B2D90E02D2D30E02095309525
:1013A000822393234817590701F110925E011DC053
:1013B00080915A0190915B01A0915C01B0915D0117
:1013C000E81AF90A0A0B1B0B8FE0E816F104010575
:1013D000110558F0809159018D2119F010925E018C
:1013E00005C092E090935E0101C080E01F910F91D3
:1013F000FF90EF90DF90CF90BF9008950E94570923
:101400000895CF92DF92EF92FF920F931F93C82E11
:10141000D3B00E945D0B7B018C010E94F00880918B
:101420005801813029F1813038F0823009F447C009
:10143000833009F083C065C02C2D30E04D2D50E085
:1014400040955095242335232115310509F476C0A4
:10145000D094DC20D0925301E0925401F0925501D7
:10146000009356011093570181E08093580166C0A4
:101470008091540190915501A0915601B09157016E
:10148000E81AF90A0A0B1B0B8FE0E816F1040105B4
:10149000110508F453C0409153018D2D90E08095C3
:1014A0009095242F30E082239323009739F182E036
:1014B00080935801D094D422D09253013FC04091E0
:1014C0005301842F8D2171F093E090935801809304
:1014D0005301E0925401F09255010093560110938C
:1014E00057012CC050E08C2D90E02D2D30E0209540
:1014F0003095822393234817590701F11092580120
:101500001DC08091540190915501A0915601B09158
:101510005701E81AF90A0A0B1B0B8FE0E816F104D1
:101520000105110558F0809153018D2119F0109299
:10153000580105C092E09093580101C080E01F91CE
:101540000F91FF90EF90DF90CF9008950E94010AD5
:1015500008956F9364E06A95F1F76F910197C9F769
:1015600008952F928F939F932FB680916001909151
:1015700061010196809360019093610190E08091F8
:101580006201891F80936201909168019C5F909332
:1015900068018091670180519742C0F09093680183
:1015A000809367018091630190916401019680931B
:1015B00063019093640190E080916501891F80939D
:1015C000650180916601891F809366012FBE9F91FE
:1015D0008F912F9018950F931F936F5F7F4F8F4FB1
:1015E0009F4F660F771F881F991F25E030E040E06E
:1015F00050E00E946A13B901CA011F910F9108952A
:101600000F931F936F5F7F4F8F4F9F4F660F771F13
:10161000881F991F25E030E040E050E00E946A13E7
:10162000B901CA011F910F910895CF93DF93EC0187
:1016300005C088EE93E00E94A90A21972097C9F778
:10164000DF91CF9108950E94150B0895E0E7F0E037
:1016500080818E7F8083A0EBB0E08C9183608C933F
:10166000A1EBB0E08C91807F8C938C9182608C9305
:10167000B89A80818160808378940895809169010F
:10168000882329F481E0809369010E94260B089544
:101690000E943E0BE0E7F0E080818E7F8083209106
:1016A0006301309164014091650150916601808130
:1016B00081608083B901CA0108950E94480B089592
:1016C0000E943E0B809170008E7F8093700020916D
:1016D000B20080915F0190916001A0916101B09191
:1016E0006201B89904C030E040E050E011C0809140
:1016F000B20020915F0130916001409161015091F1
:10170000620120503F4F4F4F5F4F90E0A0E0B0E0AC
:10171000282B392B4A2B5B2B8091700081608093A2
:101720007000B901CA0108950E94600B08950E94DB
:101730003E0BE0E7F0E080818E7F808310926301B2
:101740001092640110926501109266011092680176
:101750001092670180818160808308950E94970BB9
:1017600008959C01462F8AE691E0B9010E94F20F8C
:1017700008958AE691E00E942E0D08958AE691E090
:101780000E94120D0895682F8AE691E00E94D712F8
:1017900008958AE691E00E94490D08959C01462F24
:1017A0008AE691E0B9010E94511008959C01462FEC
:1017B0008AE691E0B90120E00E94151108959C018C
:1017C000462F8AE691E0B90121E00E9415110895A3
:1017D00080916A0190916B01089580916C019091C4
:1017E0006D01089580916E0190916F01089580912F
:1017F00070019091710108950F93DF93CF9300D002
:1018000000D00F92CDB7DEB79C01962FDE01119666
:10181000E5E3F1E085E001900D928150E1F7BE0132
:101820006F5F7F4F992329F08AE691E045E00FEF43
:1018300004C08AE691E045E003E10E94900D8AE64B
:1018400091E00E94120D0E94970B0F900F900F9045
:101850000F900F90CF91DF910F91089561E00E945A
:10186000FC0B089560E00E94FC0B08959C01462F3C
:101870008AE691E0B9010E94F20F08958AE691E0AC
:101880000E942E0D08958AE691E00E94120D08959F
:101890008AE691E00E94D71208958AE691E00E94BC
:1018A000490D08958AE691E00E94511008958AE654
:1018B00091E00E941511089580916A0190916B0149
:1018C000089580916C0190916D01089580916E0151
:1018D00090916F0108958091700190917101089528
:1018E00008958AE691E00E940D1308956F9364E0D5
:1018F0006A95F1F76F910197C9F70895FC0111827C
:10190000108213821282158214821682683068F463
:1019100089E290E0918380838BE290E093838283DD
:101920008AE290E09583848311C06E30C0F483E234
:1019300090E09183808385E290E09383828384E2C8
:1019400090E09583848370E06850704081E090E07F
:1019500002C0880F991F6A95E2F786830895653162
:10196000B8F486E290E09183808388E290E09383EC
:10197000828387E290E09583848370E06E507040AC
:1019800081E090E002C0880F991F6A95E2F7868394
:101990000895E091B001F091B101808191810895A5
:1019A000E091B001F091B101828193810895E091BD
:1019B000B001F091B101848195810895E091B00169
:1019C000F091B101868197810895A7E0B0E0EBEE38
:1019D000FCE00C94B5138C01FC011182108213827F
:1019E00012821582148217821682613118F080E10A
:1019F000808702C0FC016087F801208BCE01019630
:101A0000642F0E947E0C8F81F80181878B819C81DD
:101A1000938782878D819E81958784872796E4E0CE
:101A20000C94D113FC01A485B585109779F08C91A5
:101A30009185892B8C93A285B3859C918185809516
:101A400089238C9388EC90E00E94760C0895809115
:101A5000B0019091B1010E94120D0895FC01A4857E
:101A6000B585109771F08C919185892B8C93A28507
:101A7000B3858C919185892B8C9388EC90E00E94A2
:101A8000760C08958091B0019091B1010E942E0DC5
:101A90000895FC0120E039C080819181009759F0C0
:101AA000A22FB0E0AA0FBB1FA80FB91F868597858C
:101AB00011969C938E9384819581009759F0A22F63
:101AC000B0E0AA0FBB1FA80FB91F86859785119696
:101AD0009C938E9382819381009749F0A22FB0E06E
:101AE000AA0FBB1FA80FB91F11961C921E928681C8
:101AF0009781009749F0A22FB0E0AA0FBB1FA80F53
:101B0000B91F11961C921E922F5F8085281720F214
:101B100008958091B0019091B1010E94490D0895FE
:101B2000A7E0B0E0E6E9FDE00C94A7137C011B01FF
:101B3000642F3901402F20E00E94E50C97012F5BB4
:101B40003F4FF9011082D701AE5BBF4F1C92C70116
:101B50008D5B9F4FFC011082F701778666866624B5
:101B60002E010894411C511C6C015D01490129C0E2
:101B7000062D10E0F101E00FF11FC20160810E940B
:101B80007E0C2F81F701E00FF11F218B89819A8153
:101B9000F801EE0FFF1FEE0DFF1D92A381A383320C
:101BA000910511F4F40109C08632910511F4F50193
:101BB00004C08932910521F4F6018081822B808353
:101BC0006394F7018085681698F22796E2E10C94F9
:101BD000C3130F930E94900D0F910895A0E0B0E001
:101BE000E4EFFDE00C94AF137C01162F6A01022F85
:101BF00084E490E00E94E413A82EE5015E01B92E72
:101C0000E501209761F0C501B701412F96010E94BF
:101C1000900DB092B101A092B00181E001C080E0CE
:101C2000CDB7DEB7EAE00C94CB13A0E0B0E0EBE177
:101C3000FEE00C94AC13EC015B01FC01EF5BFF4F89
:101C40009080FC01EE5BFF4F8080FC01ED5BFF4F5D
:101C5000708080E009C0E82FF0E0EE0FFF1FEA0D72
:101C6000FB1D118210828F5F98858917A0F384B1C4
:101C700021E4E22EF12CEC0EFD1ED7019C91892B64
:101C800084B987B18E010E5B1F4FF8019081892BBB
:101C900087B98AB193E4C92ED12CCC0EDD1ED601B2
:101CA0009C91892B8AB985B1F7019081892B85B9DF
:101CB00088B1D8019C91892B88B98BB1F6019081AC
:101CC000892B8BB98AE090E00E94760C94B1D70101
:101CD0008C918095892384B997B1F8018081809592
:101CE000892387B99AB1D6018C91809589238AB9C5
:101CF00095B1F70180818095892385B998B1D80184
:101D00008C918095892388B99BB1F601808180955B
:101D100089238BB9C090B000E090B1008091B000F1
:101D200083608093B00082E08093B1000091B200A4
:101D300080E090E039C02091B200201B820F911DFD
:101D4000020FF3B0F91409F04DC096B0981409F0E1
:101D500049C029B1271509F045C024C0212F30E022
:101D6000A901440F551FF501E40FF51F6081718132
:101D70006115710599F44C0F5D1FDA0191964D9133
:101D80005C919297DA014C912C0F3D1FD90151962D
:101D90002C915197422311F4918380831F5F2885F2
:101DA0001217E0F2892C9F2C2E853F85821793070E
:101DB00010F2C092B000E092B10020E00FC0E22F1C
:101DC000F0E0EE0FFF1FEA0DFB1D8081918100976F
:101DD00021F48E859F85918380832F5F88852817C6
:101DE00070F305C0F3B096B079B010E0D8CFCDB79E
:101DF000DEB7EDE00C94C813A1E0B0E0E2E0FFE054
:101E00000C94B1136C01162F642FF22E402F21E099
:101E100079830E94E50CF601F1A212A2D601519637
:101E20007981E12FF72F7F01F601808590E04196BF
:101E30008C0D9D1D21E030E010C0B701F7014191EC
:101E40007F014D93A901FB01008002C0440F551F83
:101E50000A94E2F7412BF60142A3F60112A1A8175A
:101E6000B90759F71F7312A38FEF93E097878687FF
:101E70002196E8E00C94CD130F930E94FC0E0F9175
:101E80000895AF92BF92DF92EF92FF920F931F934C
:101E9000CF93DF937C01D62E142F022F83E290E0A4
:101EA0000E94E413A82EE5015E01B92EE5012097FA
:101EB00061F0C501B7014D2D212F0E94FC0EB0929B
:101EC000B101A092B00181E001C080E0DF91CF912B
:101ED0001F910F91FF90EF90DF90BF90AF9008950A
:101EE000EF92FF920F931F93CF93DF93FC019B011F
:101EF00000917C0010917A00E7B0F8B080917A00F0
:101F000086FDFCCF80E00AC0A82FB0E0AA0FBB1F5F
:101F1000A20FB31F11961C921E928F5F9085891796
:101F200098F397B182A18095892387B998B182A14E
:101F30008095892388B987E880937A0070E029C06A
:101F4000DF01A60FB11D51968C915197806480934B
:101F50007C0080917A00806480937A0080917A007E
:101F600086FDFCCFA62FB0E0AA0FBB1FA20FB31FA8
:101F700040917800509179008D919C911197840F38
:101F8000951F11969C938E936F5F80856817C0F2A2
:101F90007F5F81A1781710F460E0F7CF40E014C0B4
:101FA000C42FD0E0CC0FDD1FC20FD31F61A170E0A2
:101FB000CB0195958795A881B9818A0F9B1F0E94B7
:101FC0005613798368834F5F8085481748F30093E1
:101FD0007C0010937A00F8B8E7B8CDB7DEB7E6E03A
:101FE0000C94CF13A0E2B0E0E8EFFFE00C94B21342
:101FF0008C017B01D42E842F8150823018F4C801CB
:102000000E942E0DD80150968C915097882389F408
:10201000C801B7010E94150EC8010E94120DBD2D06
:10202000B230D9F5C801BE016F5F7F4F0E94150E17
:1020300010C0C801B7010E94700FC8010E94120DA4
:10204000ED2DE23051F5C801BE016F5F7F4F0E9458
:10205000700F60E0AE014F5F5F4F1BC0862F90E0B6
:10206000880F991FF701E80FF91F840F951FD801FA
:102070001E962D913C911F97DC018D919C9111979B
:10208000281B390B80819181820F931F918380835C
:102090006F5FF8018085681708F3A096E7E00C945D
:1020A000CE138F929F92AF92BF92CF92DF92FF9208
:1020B0000F931F93CF93DF93EC01C62E072FF42EBF
:1020C000423011F0FF2051F48C819D81009709F47A
:1020D000A0C08E819F81009709F49BC08F2D8150F5
:1020E000823050F488819981009709F492C08A81E6
:1020F0009B81009709F48DC0CE016C2D702F4F2D60
:102100000E94F20FAC2CB02E00E010E0882499243D
:102110007AC08F2D813059F4EA81FB81E00FF11FE5
:10212000C080D180E881F981E00FF11F0DC08C8162
:102130009D81FF2061F4EE81FF81E00FF11FC080DF
:10214000D180800F911FFC01408151812BC0800FF5
:10215000911FFC0180819181E881F981E00FF11FDD
:1021600040815181CE84DF848417950710F4A60145
:1021700004C04C0D5D1D481B590BEE81FF81E00F23
:10218000F11F80819181EA81FB81E00FF11F2081A5
:102190003181CE84DF848217930720F0C20ED31ED4
:1021A000C81AD90AC41AD50AD1F0F5016081718123
:1021B00080E090E09A0140E050E0621B730B840BDA
:1021C000950B28EE33E040E050E00E942B1396017F
:1021D00040E050E00E948C1337FD0AC002C020E0AE
:1021E00030E0F3E0293E3F072CF028EE33E002C058
:1021F00020E030E0F501219331935F010894811CC8
:10220000911C0E5F1F4F888590E0881699060CF48C
:1022100080CFDF91CF911F910F91FF90DF90CF90F2
:10222000BF90AF909F908F900895A5E0B0E0EBE154
:10223000F1E10C94A7134C01C62EE72E2D830E94CA
:102240005110D40118964C901897DE2C642D70E034
:1022500080E090E028EE33E040E050E00E942B1355
:1022600069837A838B839C83EE24FF248701662411
:102270007724882499245401552436C0F6013081EE
:10228000218142E0242E312CC20CD31CC901492FDC
:10229000582F1A012D81222329F088EE93E082190C
:1022A00093091C0199EC291631042CF4A3E32A1696
:1022B000310494F002C055245394B101882777FD6E
:1022C0008095982FA80197010E942B13860E971EC8
:1022D000A81EB91E620C731C88EE93E0A0E0B0E06B
:1022E000E80EF91E0A1F1B1F89819A81AB81BC81F0
:1022F000E816F9060A071B0709F65520F1F45524DC
:1023000008944108510824EF31E0429EC001439EE9
:10231000900D529E900D11242091AE013091AF018D
:1023200028173907B4F088EE93E0489E9001499E43
:10233000300D589E300D11240EC0930140E050E046
:10234000C501B4010E946A132093AE013093AF011E
:1023500002C020E030E0C9012596E2E10C94C313ED
:102360009C01462F8091B0019091B101B90121E00B
:102370000E94151108959C01462F8091B001909103
:10238000B101B90120E00E94151108959C01462F6A
:102390008091B0019091B101B9010E94511008954E
:1023A000A7E6B0E0E6EDF1E10C94A7138C014B0138
:1023B0006A01A6962FAFA697DA018D919C9111978D
:1023C0000097E9F4F801808590E0880F991F0E943A
:1023D000E413D60111969C938E93009709F4E2C002
:1023E000FC0180E090E003C0119211920196D801A7
:1023F00018962C91189730E082179307ACF3F401EC
:1024000080819181009789F0EE24FF245E01089479
:10241000A11CB11CB1E46B2E712C6C0E7D1EA1E2CF
:102420004A2E512C4C0E5D1E23C0D80118968C915B
:1024300090E0880F991F0E94E413F4019183808338
:10244000009709F4AFC0FC0180E090E0D80107C01C
:102450001E962D913C911F972193319301961896CA
:102460002C91189730E08217930794F38D01CCCF0D
:10247000C801B501A6964FADA6970E94F20FD801EC
:1024800018968C911897E82FF0E0A596FFAFEEAF65
:10249000A5971301F501A3965FAE4EAEA3979301E6
:1024A00040E050E0A8965FAE4EAEA89737C0E1146A
:1024B000F10461F0A896AEADBFADA8976D917C9187
:1024C0001197808191816817790760F480819181EB
:1024D000A896AEADBFADA89711969C938E93E114CC
:1024E000F10449F0D9016D917C911197808191811E
:1024F0008617970728F480819181D9018D939C9349
:102500004F5F5F4F2E5F3F4F3296A8968EAD9FADC7
:10251000A8970296A8969FAF8EAFA897A596AEAD46
:10252000BFADA5974A175B0714F20894E11CF11C94
:10253000BAE0EB16F10409F09BCF80E090E02CC0EC
:10254000F101419151911F01BC01660F771FD60126
:10255000ED91FC911197E60FF71F2081318124172F
:10256000350710F451834083A396EEADFFADA397DA
:1025700041915191A396FFAFEEAFA397D401ED9196
:10258000FC911197E60FF71F208131814217530705
:1025900010F4518340830196F801208530E08217C2
:1025A000930774F2C959DF4FE2E10C94C3131F93F0
:1025B000CF93DF93EC01162F862F8150823058F491
:1025C000AE014E5F5F4FCE01BE0121E00E94D011EF
:1025D000123019F00CC0662351F4BE016C5F7F4FBE
:1025E000AE014A5F5F4FCE0120E00E94D011DF9123
:1025F000CF911F910895682F8091B0019091B10102
:102600000E94D71208959C01462F8091B0019091AD
:10261000B101B9010E94F20F0895CF93DF93EC014D
:102620008A819B81009711F00E9491148E819F8175
:10263000009711F00E94911488819981009711F000
:102640000E9491148C819D81009711F00E94911439
:10265000DF91CF910895629FD001739FF001829F17
:10266000E00DF11D649FE00DF11D929FF00D839F21
:10267000F00D749FF00D659FF00D9927729FB00DBE
:10268000E11DF91F639FB00DE11DF91FBD01CF01D1
:1026900011240895991B79E004C0991F961708F03A
:1026A000961B881F7A95C9F780950895AA1BBB1BB6
:1026B00051E107C0AA1FBB1FA617B70710F0A61B42
:1026C000B70B881F991F5A95A9F780959095BC0163
:1026D000CD010895A1E21A2EAA1BBB1BFD010DC05E
:1026E000AA1FBB1FEE1FFF1FA217B307E407F507C2
:1026F00020F0A21BB30BE40BF50B661F771F881F9E
:10270000991F1A9469F760957095809590959B0133
:10271000AC01BD01CF01089597FB092E05260ED00F
:1027200057FD04D0D7DF0AD0001C38F450954095EF
:10273000309521953F4F4F4F5F4F0895F6F7909595
:102740008095709561957F4F8F4F9F4F08952F9281
:102750003F924F925F926F927F928F929F92AF9231
:10276000BF92CF92DF92EF92FF920F931F93CF937E
:10277000DF93CDB7DEB7CA1BDB0B0FB6F894DEBF15
:102780000FBECDBF09942A88398848885F846E843B
:102790007D848C849B84AA84B984C884DF80EE8085
:1027A000FD800C811B81AA81B981CE0FD11D0FB68E
:1027B000F894DEBF0FBECDBFED010895EE0FFF1FF1
:1027C0000590F491E02D0994CF93DF93BC01823002
:1027D000910510F462E070E0A091B401B091B501F0
:1027E000ED01E0E0F0E040E050E021C08881998117
:1027F0008617970769F48A819B81309719F0938334
:10280000828304C09093B5018093B401FE0134C06B
:102810006817790738F44115510519F084179507A1
:1028200008F4AC01FE018A819B819C01E90120979B
:10283000E9F641155105A9F1CA01861B970B0497CA
:1028400008F4BA01E0E0F0E02AC08D919C91119764
:1028500084179507F9F46417750781F412968D9122
:102860009C911397309719F09383828304C09093BF
:10287000B5018093B401FD0132964FC0CA01861B99
:10288000970BFD01E80FF91F6193719302978D93E8
:102890009C9343C0FD01828193819C01D9011097D3
:1028A000A1F68091B2019091B301892B41F48091FE
:1028B0003C0190913D019093B3018093B20140910E
:1028C0003E0150913F014115510541F44DB75EB7AE
:1028D00080913A0190913B01481B590B2091B20124
:1028E0003091B30124173507B0F4CA01821B930B52
:1028F0008617970780F0AB014E5F5F4F84179507EF
:1029000050F0420F531F5093B3014093B201F901AD
:102910006193719302C0E0E0F0E0CF01DF91CF91CD
:102920000895CF93DF93009709F450C0EC012297EC
:102930001B821A82A091B401B091B501109709F1E0
:1029400040E050E0AC17BD0708F1BB83AA83FE014D
:1029500021913191E20FF31FAE17BF0779F48D91EA
:102960009C911197280F391F2E5F3F4F3983288381
:1029700012968D919C9113979B838A8341155105E3
:1029800071F4D093B501C093B40120C012968D911B
:102990009C911397AD01009711F0DC01D3CFFA01A0
:1029A000D383C28321913191E20FF31FCE17DF074A
:1029B00069F488819981280F391F2E5F3F4FFA01F2
:1029C000318320838A819B8193838283DF91CF919E
:1029D00008950F931F93CF93DF938C01EB01009722
:1029E00031F46115710519F420E030E038C081E060
:1029F00090E06EE070E00E942717FC019C010097B8
:102A000071F180E88383209771F0D387C28781E8D2
:102A100083838091B6019091B701892B21F4F093C3
:102A2000B701E093B60101151105C9F011870087C0
:102A30008381826083838091B8019091B901892B51
:102A400071F4F093B901E093B8018091BA019091CB
:102A5000BB01892B21F4F093BB01E093BA01C901BA
:102A6000DF91CF911F910F910895A0E0B0E0EBE3CB
:102A7000F5E10C94B713FE01359661917191809147
:102A8000B8019091B901AF010E944A152096E2E089
:102A90000C94D313ABE0B0E0E0E5F5E10C94A713A0
:102AA0003C012B015A01FC0117821682838181FDB2
:102AB00003C06FEF7FEFC6C19AE0892E1E01089414
:102AC000211C311CF3012381F20123FD859123FF99
:102AD00081912F01882309F4B2C1853239F423FD95
:102AE000859123FF81912F01853229F490E0B30174
:102AF0000E946017E7CF982FFF24EE249924FFE16E
:102B0000FF15D0F09B3269F09C3228F4903259F0D6
:102B1000933291F40EC09D3249F0903369F441E054
:102B200024C052E0F52A84E0F82A28C098E0F92A67
:102B300025C0E0E1FE2A22C0F7FC29C0892F80537E
:102B40008A3070F4F6FE05C0989C902C1124980EE3
:102B500015C0E89CE02C1124E80EF0E2FF2A0EC01C
:102B60009E3229F4F6FC6BC140E4F42A07C09C367F
:102B700019F450E8F52A02C0983649F4F20123FD11
:102B8000959123FF91912F01992309F0B8CF892FB7
:102B90008554833018F08052833038F444E050E09C
:102BA000A40EB51E5FE359830FC0933631F09337FF
:102BB00079F0933509F056C020C0F50180818983F2
:102BC00042E050E0A40EB51E610101E010E012C029
:102BD000F501C080D180F6FC03C06FEF7FEF02C02B
:102BE000692D70E042E050E0A40EB51EC6010E94BF
:102BF00055178C015FE7F52214C0F501C080D18024
:102C0000F6FC03C06FEF7FEF02C0692D70E042E079
:102C100050E0A40EB51EC6010E9443178C0150E877
:102C2000F52AF3FE07C01AC080E290E0B3010E94CB
:102C30006017EA948E2D90E008171907A8F30EC0CC
:102C4000F601F7FC8591F7FE81916F0190E0B301E9
:102C50000E946017E110EA9401501040011511051F
:102C600079F7EAC0943611F0993669F5F7FE08C095
:102C7000F501208131814281538184E090E00AC0D6
:102C8000F501808191819C01442737FD4095542FA7
:102C900082E090E0A80EB91E9FE6F92257FF09C016
:102CA00050954095309521953F4F4F4F5F4FE0E84D
:102CB000FE2ACA01B901A1012AE030E00E948C1766
:102CC000D82ED21840C0953729F41F2D1F7E2AE038
:102CD00030E01DC01F2D197F9F3661F0903720F422
:102CE000983509F0ACC00FC0903739F0983709F02B
:102CF000A6C004C028E030E00AC0106114FD1460D2
:102D000020E130E004C014FD166020E132E017FF3E
:102D100008C0F501608171818281938144E050E0B7
:102D200008C0F50180819181BC0180E090E042E023
:102D300050E0A40EB51EA1010E948C17D82ED21807
:102D40008FE7F82EF122F6FE0BC05EEFF522D914C4
:102D500038F4F4FE07C0F2FC05C08FEEF82202C082
:102D60001D2D01C0192DF4FE0DC0FE01ED0DF11D4C
:102D70008081803319F499EEF92208C01F5FF2FEBA
:102D800005C003C08F2D867809F01F5F0F2DF3FC5F
:102D900014C0F0FE0FC01E1510F09D2C0BC09D2C12
:102DA0009E0C911A1E2D06C080E290E0B3010E9495
:102DB00060171F5F1E15C0F304C01E1510F4E11A42
:102DC00001C0EE2404FF0FC080E390E0B3010E9435
:102DD000601702FF1DC001FD03C088E790E00EC030
:102DE00088E590E00BC0802F867891F001FF02C04B
:102DF0008BE201C080E2F7FC8DE290E0B3010E941B
:102E0000601706C080E390E0B3010E9460179A94B7
:102E1000D914C0F3DA94F101ED0DF11D808190E039
:102E2000B3010E946017DD20A9F706C080E290E0A0
:102E3000B3010E946017EA94EE20C1F743CEF3017C
:102E400066817781CB012B96E2E10C94C3130F933B
:102E50001F93CF93DF93689F8001699F100D789F28
:102E6000100D1124C8010E94E413EC01009729F011
:102E700060E070E0A8010E944E17CE01DF91CF9173
:102E80001F910F910895FC01059061507040011051
:102E9000D8F7809590958E0F9F1F0895DC0101C093
:102EA0006D9341505040E0F70895FC01615070402F
:102EB00001900110D8F7809590958E0F9F1F08956F
:102EC0000F931F93CF93DF938C01EB018B8181FFD5
:102ED0001BC082FF0DC02E813F818C819D812817F0
:102EE000390764F4E881F9810193F983E88306C026
:102EF000E885F985802F0995892B31F48E819F8192
:102F000001969F838E8302C00FEF1FEFC801DF91F0
:102F1000CF911F910F910895FA01AA27283051F1FE
:102F2000203181F1E8946F936E7F6E5F7F4F8F4FFA
:102F30009F4FAF4FB1E03ED0B4E03CD0670F781F59
:102F4000891F9A1FA11D680F791F8A1F911DA11D3E
:102F50006A0F711D811D911DA11D20D009F4689477
:102F60003F912AE0269F11243019305D3193DEF61F
:102F7000CF010895462F4770405D4193B3E00FD0D5
:102F8000C9F7F6CF462F4F70405D4A3318F0495DC0
:102F900031FD4052419302D0A9F7EACFB4E0A695A3
:102FA0009795879577956795BA95C9F700976105C5
:102FB000710508959B01AC010A2E0694579547951B
:102FC00037952795BA95C9F7620F731F841F951F10
:102FD000A01D089510E0CAE6D0E004C0FE010E94E2
:0E2FE000E0132296CC36D107C9F7F894FFCF44
:102FEE0053696E670050726573732042002564004A
:102FFE000101040400D007F4010F009C01B501CFBC
:10300E0001EA0107022602470269028E02B502DEBC
:10301E00020A0302080E0F1011122000BC0100005C
:00000001FF
