:100000000C9436000C945E000C945E000C945E0020
:100010000C945E000C945E000C945E000C945E00E8
:100020000C945E000C94A6060C945E000C945E008A
:100030000C945E000C945E000C945E000C945E00C8
:100040000C945E000C945E000C945E000C945E00B8
:100050000C945E000C945E000C945E000C945E00A8
:100060000C945E000C945E006508660811241FBEA7
:10007000CFEFD8E0DEBFCDBF11E0A0E0B1E0E0EC13
:10008000F7E202C005900D92A232B107D9F711E054
:10009000A2E2B1E001C01D92A539B107E1F710E07D
:1000A000CAE6D0E004C02297FE010E94C90FC836FC
:1000B000D107C9F70E9466000C94F0000C94000070
:1000C000809113018F5F809313010895EF92FF9247
:1000D0000F931F93DF93CF93CDB7DEB72A970FB659
:1000E000F894DEBF0FBECDBF0E94C30400D080E0F5
:1000F00091E0EDB7FEB7928381830E941E110F90AD
:100100000F9080E061E00E94250300D088E091E03C
:10011000EDB7FEB7928381830E941E110F900F905E
:1001200088E893E10E94270880E10E9435057E015E
:100130000894E11CF11C00E111E00E943702C701A4
:1001400062E00E94A60700D000D0EDB7FEB7128390
:10015000018389819A81948383830E941E110F9069
:100160000F900F900F9084E060E00E94250300D074
:1001700000D0EDB7FEB71283018389859A859483F9
:1001800083830E941E110F900F900F900F9082E0BA
:1001900061E00E94250300D000D0EDB7FEB71283C6
:1001A00001838D819E81948383830E941E110F9011
:1001B0000F900F900F9080E10E943505882309F081
:1001C000BCCF80E090E02A960FB6F894DEBF0FBE59
:1001D000CDBFCF91DF911F910F91FF90EF900895C8
:1001E000F8940C94D31380E090E0089581E090E0BF
:1001F0006F9364E06A95F1F76F910197C9F70895DD
:1002000008950F931F93CF93DF931AB157985A987D
:10021000289AC0E0D0E00E94F6005C9A0E94F600A6
:1002200009B15C980E94F6005C9A0E94F6005C9806
:1002300007FF11C024969E0140E050E08091260106
:1002400090912701A0912801B09129012817390721
:100250004A075B0700F31AB9DF91CF911F910F9105
:10026000089565B190E0AC0141705070440F551F86
:100270009C012670307053E0220F331F5A95E1F72E
:10028000242B6D7C262B25B92BB18870907034E01F
:10029000880F991F3A95E1F72F77282B2BB95C9A95
:1002A0000E94F6005C980E94F6000895A2E0B0E07B
:1002B000ECE5F1E00C949B0F182F4A8369830E94B0
:1002C00001020E940101F4B005B1DAB0EBB0289848
:1002D00069814A81662311F05A9A01C05A9884B103
:1002E000826384B9579A413029F0812F82958F70AB
:1002F0000E943101812F8F700E943101DAB8EBB872
:10030000F4B805B92296E7E00C94B70F60E042E03C
:100310000E945601089561E042E00E94560108954E
:10032000EF92FF921F93DF93CF930F92CDB7DEB77B
:10033000660F660F660F482F592F7A0110E0812F44
:10034000860F806469830E948601F70184910E9470
:100350008B011F5F0894E11CF11C6981183079F74B
:100360000F90CF91DF911F91FF90EF9008950E9421
:10037000900108950E948B01089560E041E00E9481
:100380005601089580E197E2A0E0B0E08093260155
:1003900090932701A0932801B0932901529A209AA3
:1003A000549A8EE190E00E94180783E00E94BD01FC
:1003B00086E090E00E94180783E00E94BD0182E081
:1003C00090E00E94180783E00E94BD0182E090E067
:1003D0000E94180782E00E94BD0182E090E00E9426
:1003E000180788E20E94860188E00E94860181E069
:1003F0000E94860186E00E9486018CE00E948601B0
:10040000089580912A01882329F481E080932A01AC
:100410000E94C201089581E00E948601809122011C
:1004200090912301009711F1A0E0B0E208C0E091A3
:100430002201F0912301E20FF31FB083AF5F2A2F57
:1004400030E08091140190E001976091150170E017
:10045000869FA001879F500D969F500D1124241751
:1004600035072CF3109225011092240108950E9463
:100470000B0208950E948B010895EF92FF92CF9393
:10048000DF93E82EE7017E01F92EE70102C00E940A
:100490008B0189918823D9F7DF91CF91FF90EF905D
:1004A00008950E943D020895CF93DF93EC0103C0AD
:1004B0000E948B012196FE0184918823C9F7DF9168
:1004C000CF9108950E94540208950E943D0208951C
:1004D000AAE0B0E0EEE6F2E00C94980F9B01AC01CC
:1004E0001AE0EAE0CE2ED12CE12CF12C5E0108942A
:1004F000A11CB11C022FCA01B901A70196010E94DB
:10050000530F1150F501E10FF11D005D922F990F6E
:10051000892F880F880F890F081B0083211531054B
:100520004105510539F708C0F601E10FF11D808141
:100530000E948B011F5F04C06E010894C11CD11C76
:100540001A3090F32A96EAE00C94B40FEF92FF92DF
:100550000F931F937B018C0197FF0BC010950095A3
:10056000F094E094E11CF11C011D111D8DE20E942C
:100570008B01C801B7010E9468021F910F91FF9083
:10058000EF9008950E94A60208950E9468020895BF
:100590008A3010F4805D01C0895C0E948B0108954F
:1005A0001F93182F82958F700E94C802812F8F7021
:1005B0000E94C8021F9108951F93182F892F0E942F
:1005C000D002812F0E94D0021F9108950E94DC0268
:1005D00008950E94D0020895FF920F931F93F82E62
:1005E00008E010E8812F8F2111F081E301C080E342
:1005F0000E948B01015011F01695F4CF1F910F91BD
:10060000FF9008950E94EC020895A5E0B0E0EBE0B1
:10061000F3E00C949F0F182F80E8898380EC8A8385
:1006200084E98B8384ED8C83FE01E60FF11D8181CB
:10063000810F6D830E948601109325016D81609367
:1006400024012596E3E00C94BB0F0E940503089556
:10065000A0E0B0E0EEE2F3E00C949A0FD82E809187
:10066000220190912301009709F4FAC02D2D2A3020
:1006700009F443C02830C9F480912501815080934A
:1006800025018F3F51F480912401815080932401F2
:1006900080911501815080932501809124018F3F25
:1006A00009F0D8C010922401D3C08D2D0E948B0177
:1006B000809124018823B9F090E0019740911501C1
:1006C00050E0849F9001859F300D949F300D112440
:1006D00080912501E0912201F0912301E20FF31FA7
:1006E000E80FF11DD082809125018F5F8093250155
:1006F00090911501891709F0B3C040912401242F6E
:1007000030E08091140190E001972817390709F033
:100710009CC0C0E0D0E041C080E06C2F0E94050387
:10072000CC248E010F5F1F4F33C0EC2CFF2430E030
:10073000C29FC001C39F900DD29F900D1124E091E4
:100740002201F0912301EE0DFF1DE80FF91F8081BA
:100750000E948B018091220190912301209115012B
:1007600030E0C29FF001C39FF00DD29FF00D112425
:100770008E0D9F1DE80FF91F029FD001039FB00D42
:10078000129FB00D1124A80FB91F8C918083C394C0
:1007900020911501C21648F2E80160911401862FDC
:1007A00090E00297C817D9070CF4B6CF6230E0F199
:1007B000625080E00E94050300E010E231C0C02FCB
:1007C000D0E08091140190E0029750E0849F900166
:1007D000859F300D949F300D1124E0912201F091FE
:1007E0002301EC0FFD1FE20FF31F80810E948B019C
:1007F0008091140190E002974091150150E0849F90
:100800009001859F300D949F300D1124E0912201BD
:10081000F0912301EC0FFD1FE20FF31F10830F5F18
:1008200040911501041758F260911401615080E065
:100830000E94050310E004C080E20E948B011F5F4C
:10084000809115011817C0F303C04F5F4093240136
:100850001092250180912501609124010E940503D9
:100860002D2D332727FD3095C901CDB7DEB7E8E040
:100870000C94B60F813011F48FE001C08EE00E941D
:10088000860108950E943A0408958CE00E94860132
:1008900008950E94450408950F931F93182F062F63
:1008A00008C0112311F480E101C084E10E94860197
:1008B00001500023B1F71F910F9108950E944C043D
:1008C00008950F931F93CF93DF93182F062FEA01FC
:1008D0000BC0112311F488E101C08CE10E94860154
:1008E000CE010E9418070150002399F7DF91CF91A4
:1008F0001F910F9108950E94610408958091220133
:1009000090912301009711F00E947A102091140118
:1009100030E0215030408091150190E0AC01249FDF
:10092000C001259F900D349F900D11240E94CD0F82
:100930009093230180932201009721F1A0E0B0E27F
:1009400008C0E0912201F0912301E20FF31FB08370
:10095000AF5F2A2F30E08091140190E00197609101
:10096000150170E0869FA001879F500D969F500D46
:100970001124241735072CF388E293E063EF70E02D
:100980000E94D21008950E947E040895809315015C
:10099000609314010E947E04089580931501609372
:1009A00014010E947E040895089584B18D7C84B959
:1009B00085B1826385B985E090E06F9364E06A95C4
:1009C000F1F76F910197C9F7089580912B01882362
:1009D00029F481E080932B010E94D50408951F9390
:1009E000CF93DF93182F0E94E504C12FD0E023B1ED
:1009F00030E0209530952C233D2321153105B9F3A6
:100A00008AE090E00E94180723B130E020953095ED
:100A10002C233D232115310551F383B1809581238A
:100A2000DF91CF911F9108950E94EF0408951F93C5
:100A3000182F0E94E50483B18123E9F38AE090E056
:100A40000E94180783B18123B1F383B181231F91E1
:100A500008950E94170508951F930E94EF04182F10
:100A60000E941705812F1F9108950E942C0508955B
:100A7000A1E0B0E0EEE3F5E00C94A00F89830E94C2
:100A8000E50493B19095898189232196E2E00C9445
:100A9000BC0F0E9438050895BF92CF92DF92EF926B
:100AA000FF920F931F93B82EC3B0DC2CD0940E94FA
:100AB00052077B018C010E94E5048091370181304F
:100AC00021F1813038F0823009F445C0833009F0DB
:100AD00081C063C02B2D30E04D2D50E040955095E6
:100AE000242335232115310509F474C0CB20C0928D
:100AF0003201E0923301F0923401009335011093FA
:100B0000360181E08093370165C080913301909177
:100B10003401A0913501B0913601E81AF90A0A0BA7
:100B20001B0B8FE0E816F1040105110508F452C013
:100B3000409132018D2D90E080959095242F30E0EA
:100B400082239323009731F182E080933701C422FE
:100B5000C09232013FC0409132018D2D842371F04B
:100B600093E09093370180933201E0923301F09249
:100B7000340100933501109336012CC050E08B2DC9
:100B800090E02D2D30E02095309582239323481757
:100B9000590701F1109237011DC0809133019091E6
:100BA0003401A0913501B0913601E81AF90A0A0B17
:100BB0001B0B8FE0E816F1040105110558F0809138
:100BC00032018D2119F01092370105C092E0909307
:100BD000370101C080E01F910F91FF90EF90DF90EF
:100BE000CF90BF9008950E944C050895CF92DF9258
:100BF000EF92FF920F931F93C82ED3B00E9452071B
:100C00007B018C010E94E50480913101813029F142
:100C1000813038F0823009F447C0833009F083C056
:100C200065C02C2D30E04D2D50E04095509524238B
:100C300035232115310509F476C0D094DC20D092FB
:100C40002C01E0922D01F0922E0100932F011093C0
:100C5000300181E08093310166C080912D01909137
:100C60002E01A0912F01B0913001E81AF90A0A0B68
:100C70001B0B8FE0E816F1040105110508F453C0C1
:100C800040912C018D2D90E080959095242F30E09F
:100C900082239323009739F182E080933101D0942D
:100CA000D422D0922C013FC040912C01842F8D2161
:100CB00071F093E09093310180932C01E0922D012B
:100CC000F0922E0100932F01109330012CC050E0C0
:100CD0008C2D90E02D2D30E02095309582239323AC
:100CE0004817590701F1109231011DC080912D0163
:100CF00090912E01A0912F01B0913001E81AF90ACC
:100D00000A0B1B0B8FE0E816F1040105110558F0E2
:100D100080912C018D2119F01092310105C092E0D3
:100D20009093310101C080E01F910F91FF90EF90EF
:100D3000DF90CF9008950E94F60508956F9364E0C8
:100D40006A95F1F76F910197C9F708952F928F93E4
:100D50009F932FB68091390190913A01019680932B
:100D6000390190933A0190E080913B01891F809373
:100D70003B01909141019C5F909341018091400122
:100D800080519742C0F0909341018093400180913F
:100D90003C0190913D01019680933C0190933D016F
:100DA00090E080913E01891F80933E0180913F0138
:100DB000891F80933F012FBE9F918F912F9018958F
:100DC0000F931F936F5F7F4F8F4F9F4F660F771F5C
:100DD000881F991F25E030E040E050E00E94530F4B
:100DE000B901CA011F910F9108950F931F936F5F6F
:100DF0007F4F8F4F9F4F660F771F881F991F25E0EA
:100E000030E040E050E00E94530FB901CA011F9149
:100E10000F910895CF93DF93EC0105C088EE93E026
:100E20000E949E0621972097C9F7DF91CF910895E0
:100E30000E940A070895E0E7F0E080818E7F8083BA
:100E4000A0EBB0E08C9183608C93A1EBB0E08C912F
:100E5000807F8C938C9182608C93B89A8081816022
:100E600080837894089580914201882329F481E059
:100E7000809342010E941B0708950E943307E0E718
:100E8000F0E080818E7F808320913C0130913D0194
:100E900040913E0150913F01808181608083B90182
:100EA000CA0108950E943D0708950E94330780916A
:100EB00070008E7F809370002091B2008091380185
:100EC00090913901A0913A01B0913B01B89904C0C9
:100ED00030E040E050E011C08091B2002091380134
:100EE0003091390140913A0150913B0120503F4FE0
:100EF0004F4F5F4F90E0A0E0B0E0282B392B4A2BFA
:100F00005B2B80917000816080937000B901CA01F1
:100F100008950E94550708950E943307E0E7F0E026
:100F200080818E7F808310923C0110923D0110924F
:100F30003E0110923F0110924101109240018081C8
:100F40008160808308950E948C0708959C01462F3C
:100F500083E491E0B9010E94E70B089583E491E0F6
:100F60000E942309089583E491E00E9407090895EF
:100F7000682F83E491E00E94CC0E089583E491E011
:100F80000E943E0908959C01462F83E491E0B90137
:100F90000E94460C08959C01462F83E491E0B9011C
:100FA00020E00E940A0D08959C01462F83E491E001
:100FB000B90121E00E940A0D0895809143019091AA
:100FC00044010895809145019091460108958091D2
:100FD00047019091480108958091490190914A01FB
:100FE00008950F93DF93CF9300D000D00F92CDB729
:100FF000DEB79C01962FDE011196E6E1F1E085E077
:1010000001900D928150E1F7BE016F5F7F4F9923F0
:1010100029F083E491E045E00FEF04C083E491E020
:1010200045E003E10E94850983E491E00E940709FD
:101030000E948C070F900F900F900F900F90CF9100
:10104000DF910F91089561E00E94F107089560E03B
:101050000E94F10708959C01462F83E491E0B901B5
:101060000E94E70B089583E491E00E94230908950C
:1010700083E491E00E940709089583E491E00E94CF
:10108000CC0E089583E491E00E943E09089583E424
:1010900091E00E94460C089583E491E00E940A0DBD
:1010A00008958091430190914401089580914501F4
:1010B00090914601089580914701909148010895CB
:1010C0008091490190914A010895089583E491E047
:1010D0000E94020F08956F9364E06A95F1F76F9193
:1010E0000197C9F70895FC011182108213821282C0
:1010F000158214821682683068F489E290E0918348
:1011000080838BE290E0938382838AE290E09583F0
:10111000848311C06E30C0F483E290E091838083B9
:1011200085E290E09383828384E290E095838483D8
:1011300070E06850704081E090E002C0880F991F15
:101140006A95E2F7868308956531B8F486E290E007
:101150009183808388E290E09383828387E290E0AA
:101160009583848370E06E50704081E090E002C00F
:10117000880F991F6A95E2F786830895E0918901A7
:10118000F0918A01808191810895E0918901F09127
:101190008A01828193810895E0918901F0918A0109
:1011A000848195810895E0918901F0918A01868179
:1011B00097810895A7E0B0E0E0EEF8E00C949E0F70
:1011C0008C01FC011182108213821282158214821A
:1011D00017821682613118F080E1808702C0FC011D
:1011E0006087F801208BCE010196642F0E9473085E
:1011F0008F81F80181878B819C81938782878D8184
:101200009E81958784872796E4E00C94BA0FFC01B1
:10121000A485B585109779F08C919185892B8C9355
:10122000A285B3859C918185809589238C9388ECD8
:1012300090E00E946B0808958091890190918A0145
:101240000E9407090895FC01A485B585109771F0E7
:101250008C919185892B8C93A285B3858C919185F6
:10126000892B8C9388EC90E00E946B080895809104
:10127000890190918A010E9423090895FC0120E0D0
:1012800039C080819181009759F0A22FB0E0AA0F58
:10129000BB1FA80FB91F8685978511969C938E93C7
:1012A00084819581009759F0A22FB0E0AA0FBB1F4F
:1012B000A80FB91F8685978511969C938E9382817E
:1012C0009381009749F0A22FB0E0AA0FBB1FA80F8F
:1012D000B91F11961C921E9286819781009749F042
:1012E000A22FB0E0AA0FBB1FA80FB91F11961C9226
:1012F0001E922F5F8085281720F208958091890122
:1013000090918A010E943E090895A7E0B0E0EBE8C1
:10131000F9E00C94900F7C011B01642F3901402FE0
:1013200020E00E94DA0897012F5B3F4FF9011082FD
:10133000D701AE5BBF4F1C92C7018D5B9F4FFC0175
:101340001082F7017786668666242E010894411C78
:10135000511C6C015D01490129C0062D10E0F1010D
:10136000E00FF11FC20160810E9473082F81F70115
:10137000E00FF11F218B89819A81F801EE0FFF1F89
:10138000EE0DFF1D92A381A38332910511F4F401A8
:1013900009C08632910511F4F50104C08932910526
:1013A00021F4F6018081822B80836394F70180858C
:1013B000681698F22796E2E10C94AC0F0F930E9406
:1013C00085090F910895A0E0B0E0E9EEF9E00C94F2
:1013D000980F7C01162F6A01022F84E490E00E948E
:1013E000CD0FA82EE5015E01B92EE501209761F031
:1013F000C501B701412F96010E948509B0928A016B
:10140000A092890181E001C080E0CDB7DEB7EAE0BB
:101410000C94B40FA0E0B0E0E0E1FAE00C94950F7A
:10142000EC015B01FC01EF5BFF4F9080FC01EE5B88
:10143000FF4F8080FC01ED5BFF4F708080E009C0B2
:10144000E82FF0E0EE0FFF1FEA0DFB1D1182108266
:101450008F5F98858917A0F384B121E4E22EF12CE7
:10146000EC0EFD1ED7019C91892B84B987B18E01AA
:101470000E5B1F4FF8019081892B87B98AB193E4E5
:10148000C92ED12CCC0EDD1ED6019C91892B8AB998
:1014900085B1F7019081892B85B988B1D8019C91DC
:1014A000892B88B98BB1F6019081892B8BB98AE0A1
:1014B00090E00E946B0894B1D7018C9180958923AC
:1014C00084B997B1F80180818095892387B99AB151
:1014D000D6018C91809589238AB995B1F7018081D5
:1014E0008095892385B998B1D8018C9180958923FD
:1014F00088B99BB1F6018081809589238BB9C09012
:10150000B000E090B1008091B00083608093B000A3
:1015100082E08093B1000091B20080E090E039C099
:101520002091B200201B820F911D020FF3B0F9141D
:1015300009F04DC096B0981409F049C029B127159B
:1015400009F045C024C0212F30E0A901440F551FE8
:10155000F501E40FF51F608171816115710599F442
:101560004C0F5D1FDA0191964D915C919297DA01D3
:101570004C912C0F3D1FD90151962C91519742232C
:1015800011F4918380831F5F28851217E0F2892C64
:101590009F2C2E853F858217930710F2C092B000D2
:1015A000E092B10020E00FC0E22FF0E0EE0FFF1F4D
:1015B000EA0DFB1D80819181009721F48E859F8526
:1015C000918380832F5F8885281770F305C0F3B05F
:1015D00096B079B010E0D8CFCDB7DEB7EDE00C947F
:1015E000B10FA1E0B0E0E7EFFAE00C949A0F6C01C4
:1015F000162F642FF22E402F21E079830E94DA0803
:10160000F601F1A212A2D60151967981E12FF72FAE
:101610007F01F601808590E041968C0D9D1D21E0B3
:1016200030E010C0B701F70141917F014D93A9014E
:10163000FB01008002C0440F551F0A94E2F7412BC2
:10164000F60142A3F60112A1A817B90759F71F73B3
:1016500012A38FEF93E0978786872196E8E00C949A
:10166000B60F0F930E94F10A0F910895AF92BF92A7
:10167000DF92EF92FF920F931F93CF93DF937C0142
:10168000D62E142F022F83E290E00E94CD0FA82EB9
:10169000E5015E01B92EE501209761F0C501B701B2
:1016A0004D2D212F0E94F10AB0928A01A09289014A
:1016B00081E001C080E0DF91CF911F910F91FF90F9
:1016C000EF90DF90BF90AF900895EF92FF920F934D
:1016D0001F93CF93DF93FC019B0100917C0010913D
:1016E0007A00E7B0F8B080917A0086FDFCCF80E008
:1016F0000AC0A82FB0E0AA0FBB1FA20FB31F1196FC
:101700001C921E928F5F9085891798F397B182A1E2
:101710008095892387B998B182A18095892388B95A
:1017200087E880937A0070E029C0DF01A60FB11D21
:1017300051968C915197806480937C0080917A00BF
:10174000806480937A0080917A0086FDFCCFA62F7A
:10175000B0E0AA0FBB1FA20FB31F409178005091B9
:1017600079008D919C911197840F951F11969C93F0
:101770008E936F5F80856817C0F27F5F81A17817B5
:1017800010F460E0F7CF40E014C0C42FD0E0CC0FDD
:10179000DD1FC20FD31F61A170E0CB019595879526
:1017A000A881B9818A0F9B1F0E943F0F79836883AC
:1017B0004F5F8085481748F300937C0010937A00B0
:1017C000F8B8E7B8CDB7DEB7E6E00C94B80FA0E202
:1017D000B0E0EDEEFBE00C949B0F8C017B01D42E6E
:1017E000842F8150823018F4C8010E942309D80147
:1017F00050968C915097882389F4C801B7010E94B4
:101800000A0AC8010E940709BD2DB230D9F5C801E6
:10181000BE016F5F7F4F0E940A0A10C0C801B70166
:101820000E94650BC8010E940709ED2DE23051F5B9
:10183000C801BE016F5F7F4F0E94650B60E0AE0183
:101840004F5F5F4F1BC0862F90E0880F991FF701F5
:10185000E80FF91F840F951FD8011E962D913C911A
:101860001F97DC018D919C911197281B390B80816A
:101870009181820F931F918380836F5FF801808530
:10188000681708F3A096E7E00C94B70F8F929F9229
:10189000AF92BF92CF92DF92FF920F931F93CF939D
:1018A000DF93EC01C62E072FF42E423011F0FF20FB
:1018B00051F48C819D81009709F4A0C08E819F8195
:1018C000009709F49BC08F2D8150823050F488819D
:1018D0009981009709F492C08A819B81009709F44D
:1018E0008DC0CE016C2D702F4F2D0E94E70BAC2CBC
:1018F000B02E00E010E0882499247AC08F2D81302A
:1019000059F4EA81FB81E00FF11FC080D180E881AA
:10191000F981E00FF11F0DC08C819D81FF2061F4E2
:10192000EE81FF81E00FF11FC080D180800F911FF9
:10193000FC01408151812BC0800F911FFC018081EF
:101940009181E881F981E00FF11F40815181CE84BE
:10195000DF848417950710F4A60104C04C0D5D1DAB
:10196000481B590BEE81FF81E00FF11F80819181AF
:10197000EA81FB81E00FF11F20813181CE84DF8479
:101980008217930720F0C20ED31EC81AD90AC41AB0
:10199000D50AD1F0F5016081718180E090E09A0173
:1019A00040E050E0621B730B840B950B28EE33E094
:1019B00040E050E00E94200F960140E050E00E947D
:1019C000750F37FD0AC002C020E030E0F3E0293E89
:1019D0003F072CF028EE33E002C020E030E0F501B4
:1019E000219331935F010894811C911C0E5F1F4F5E
:1019F000888590E0881699060CF480CFDF91CF910E
:101A00001F910F91FF90DF90CF90BF90AF909F906C
:101A10008F900895A5E0B0E0E0E1FDE00C94900F18
:101A20004C01C62EE72E2D830E94460CD401189639
:101A30004C901897DE2C642D70E080E090E028EE4A
:101A400033E040E050E00E94200F69837A838B836B
:101A50009C83EE24FF24870166247724882499241C
:101A60005401552436C0F6013081218142E0242EF4
:101A7000312CC20CD31CC901492F582F1A012D81BA
:101A8000222329F088EE93E0821993091C0199EC36
:101A9000291631042CF4A3E32A16310494F002C071
:101AA00055245394B101882777FD8095982FA8017C
:101AB00097010E94200F860E971EA81EB91E620C69
:101AC000731C88EE93E0A0E0B0E0E80EF91E0A1F58
:101AD0001B1F89819A81AB81BC81E816F9060A0730
:101AE0001B0709F65520F1F45524089441085108C4
:101AF00024EF31E0429EC001439E900D529E900D16
:101B00001124209187013091880128173907B4F0FA
:101B100088EE93E0489E9001499E300D589E300D0E
:101B200011240EC0930140E050E0C501B4010E94B1
:101B3000530F209387013093880102C020E030E0EA
:101B4000C9012596E2E10C94AC0F9C01462F8091CF
:101B5000890190918A01B90121E00E940A0D08953E
:101B60009C01462F8091890190918A01B90120E062
:101B70000E940A0D08959C01462F80918901909141
:101B80008A01B9010E94460C0895A7E6B0E0EBEC8B
:101B9000FDE00C94900F8C014B016A01A6962FAFCB
:101BA000A697DA018D919C9111970097E9F4F801BD
:101BB000808590E0880F991F0E94CD0FD601119665
:101BC0009C938E93009709F4E2C0FC0180E090E0C2
:101BD00003C0119211920196D80118962C91189772
:101BE00030E082179307ACF3F40180819181009774
:101BF00089F0EE24FF245E010894A11CB11CB1E41D
:101C00006B2E712C6C0E7D1EA1E24A2E512C4C0EB7
:101C10005D1E23C0D80118968C9190E0880F991F03
:101C20000E94CD0FF40191838083009709F4AFC027
:101C3000FC0180E090E0D80107C01E962D913C91F8
:101C40001F9721933193019618962C91189730E0A5
:101C50008217930794F38D01CCCFC801B501A696E6
:101C60004FADA6970E94E70BD80118968C91189754
:101C7000E82FF0E0A596FFAFEEAFA5971301F501B1
:101C8000A3965FAE4EAEA397930140E050E0A896B6
:101C90005FAE4EAEA89737C0E114F10461F0A8968C
:101CA000AEADBFADA8976D917C9111978081918168
:101CB0006817790760F480819181A896AEADBFADB9
:101CC000A89711969C938E93E114F10449F0D901E1
:101CD0006D917C911197808191818617970728F4E7
:101CE00080819181D9018D939C934F5F5F4F2E5FCF
:101CF0003F4F3296A8968EAD9FADA8970296A896B4
:101D00009FAF8EAFA897A596AEADBFADA5974A176A
:101D10005B0714F20894E11CF11CBAE0EB16F10425
:101D200009F09BCF80E090E02CC0F10141915191EE
:101D30001F01BC01660F771FD601ED91FC91119731
:101D4000E60FF71F208131812417350710F45183E6
:101D50004083A396EEADFFADA39741915191A39619
:101D6000FFAFEEAFA397D401ED91FC911197E60F71
:101D7000F71F208131814217530710F451834083AC
:101D80000196F801208530E08217930774F2C95953
:101D9000DF4FE2E10C94AC0F1F93CF93DF93EC0184
:101DA000162F862F8150823058F4AE014E5F5F4F60
:101DB000CE01BE0121E00E94C50D123019F00CC009
:101DC000662351F4BE016C5F7F4FAE014A5F5F4FE7
:101DD000CE0120E00E94C50DDF91CF911F910895A3
:101DE000682F8091890190918A010E94CC0E0895FC
:101DF0009C01462F8091890190918A01B9010E942E
:101E0000E70B0895CF93DF93EC018A819B810097C4
:101E100011F00E947A108E819F81009711F00E942C
:101E20007A1088819981009711F00E947A108C8134
:101E30009D81009711F00E947A10DF91CF91089553
:101E4000629FD001739FF001829FE00DF11D649F9E
:101E5000E00DF11D929FF00D839FF00D749FF00D2A
:101E6000659FF00D9927729FB00DE11DF91F639FCB
:101E7000B00DE11DF91FBD01CF0111240895AA1B6A
:101E8000BB1B51E107C0AA1FBB1FA617B70710F065
:101E9000A61BB70B881F991F5A95A9F78095909597
:101EA000BC01CD010895A1E21A2EAA1BBB1BFD01A6
:101EB0000DC0AA1FBB1FEE1FFF1FA217B307E40729
:101EC000F50720F0A21BB30BE40BF50B661F771F81
:101ED000881F991F1A9469F7609570958095909561
:101EE0009B01AC01BD01CF01089597FB092E05268A
:101EF0000ED057FD04D0D7DF0AD0001C38F450951F
:101F00004095309521953F4F4F4F5F4F0895F6F71D
:101F100090958095709561957F4F8F4F9F4F089555
:101F20002F923F924F925F926F927F928F929F92E9
:101F3000AF92BF92CF92DF92EF92FF920F931F93D7
:101F4000CF93DF93CDB7DEB7CA1BDB0B0FB6F89488
:101F5000DEBF0FBECDBF09942A88398848885F84C8
:101F60006E847D848C849B84AA84B984C884DF8039
:101F7000EE80FD800C811B81AA81B981CE0FD11D1D
:101F80000FB6F894DEBF0FBECDBFED010895EE0F82
:101F9000FF1F0590F491E02D0994CF93DF93BC01CE
:101FA0008230910510F462E070E0A0918D01B09153
:101FB0008E01ED01E0E0F0E040E050E021C08881DA
:101FC00099818617970769F48A819B81309719F068
:101FD0009383828304C090938E0180938D01FE01D0
:101FE00034C06817790738F44115510519F0841782
:101FF000950708F4AC01FE018A819B819C01E901EF
:102000002097E9F641155105A9F1CA01861B970BE6
:10201000049708F4BA01E0E0F0E02AC08D919C91A9
:10202000119784179507F9F46417750781F41296D0
:102030008D919C911397309719F09383828304C0FC
:1020400090938E0180938D01FD0132964FC0CA019D
:10205000861B970BFD01E80FF91F6193719302979F
:102060008D939C9343C0FD01828193819C01D90192
:102070001097A1F680918B0190918C01892B41F4EE
:1020800080911D0190911E0190938C0180938B0192
:1020900040911F01509120014115510541F44DB768
:1020A0005EB780911B0190911C01481B590B209138
:1020B0008B0130918C0124173507B0F4CA01821BC3
:1020C000930B8617970780F0AB014E5F5F4F841725
:1020D000950750F0420F531F50938C0140938B0192
:1020E000F9016193719302C0E0E0F0E0CF01DF916C
:1020F000CF910895CF93DF93009709F450C0EC017E
:1021000022971B821A82A0918D01B0918E011097A7
:1021100009F140E050E0AC17BD0708F1BB83AA838A
:10212000FE0121913191E20FF31FAE17BF0779F441
:102130008D919C911197280F391F2E5F3F4F398346
:10214000288312968D919C9113979B838A834115C6
:10215000510571F4D0938E01C0938D0120C0129669
:102160008D919C911397AD01009711F0DC01D3CFB5
:10217000FA01D383C28321913191E20FF31FCE176D
:10218000DF0769F488819981280F391F2E5F3F4F3F
:10219000FA01318320838A819B8193838283DF913B
:1021A000CF9108950F931F93CF93DF938C01EB0191
:1021B000009731F46115710519F420E030E038C062
:1021C00081E090E06EE070E00E941013FC019C0141
:1021D000009771F180E88383209771F0D387C287DD
:1021E00081E8838380918F0190919001892B21F464
:1021F000F0939001E0938F0101151105C9F011874B
:102200000087838182608383809191019091920104
:10221000892B71F4F0939201E093910180919301E5
:1022200090919401892B21F4F0939401E093930110
:10223000C901DF91CF911F910F910895A0E0B0E007
:10224000E4E2F1E10C94A00FFE01359661917191E9
:102250008091910190919201AF010E9433112096DB
:10226000E2E00C94BC0FABE0B0E0E9E3F1E10C94E8
:10227000900F3C012B015A01FC01178216828381C9
:1022800081FD03C06FEF7FEFC6C19AE0892E1E016A
:102290000894211C311CF3012381F20123FD859157
:1022A00023FF81912F01882309F4B2C1853239F4CB
:1022B00023FD859123FF81912F01853229F490E040
:1022C000B3010E944913E7CF982FFF24EE249924ED
:1022D000FFE1FF15D0F09B3269F09C3228F4903278
:1022E00059F0933291F40EC09D3249F0903369F465
:1022F00041E024C052E0F52A84E0F82A28C098E0A2
:10230000F92A25C0E0E1FE2A22C0F7FC29C0892F66
:1023100080538A3070F4F6FE05C0989C902C1124EE
:10232000980E15C0E89CE02C1124E80EF0E2FF2A7C
:102330000EC09E3229F4F6FC6BC140E4F42A07C0BB
:102340009C3619F450E8F52A02C0983649F4F20197
:1023500023FD959123FF91912F01992309F0B8CF87
:10236000892F8554833018F08052833038F444E04C
:1023700050E0A40EB51E5FE359830FC0933631F0D1
:10238000933779F0933509F056C020C0F50180816C
:10239000898342E050E0A40EB51E610101E010E027
:1023A00012C0F501C080D180F6FC03C06FEF7FEF53
:1023B00002C0692D70E042E050E0A40EB51EC601D7
:1023C0000E943E138C015FE7F52214C0F501C08026
:1023D000D180F6FC03C06FEF7FEF02C0692D70E083
:1023E00042E050E0A40EB51EC6010E942C138C01E1
:1023F00050E8F52AF3FE07C01AC080E290E0B3016E
:102400000E944913EA948E2D90E008171907A8F34B
:102410000EC0F601F7FC8591F7FE81916F0190E007
:10242000B3010E944913E110EA94015010400115D4
:10243000110579F7EAC0943611F0993669F5F7FE7F
:1024400008C0F501208131814281538184E090E010
:102450000AC0F501808191819C01442737FD409598
:10246000542F82E090E0A80EB91E9FE6F92257FF94
:1024700009C050954095309521953F4F4F4F5F4F84
:10248000E0E8FE2ACA01B901A1012AE030E00E9479
:102490007513D82ED21840C0953729F41F2D1F7EF2
:1024A0002AE030E01DC01F2D197F9F3661F0903764
:1024B00020F4983509F0ACC00FC0903739F0983748
:1024C00009F0A6C004C028E030E00AC0106114FD85
:1024D000146020E130E004C014FD166020E132E019
:1024E00017FF08C0F501608171818281938144E00A
:1024F00050E008C0F50180819181BC0180E090E04E
:1025000042E050E0A40EB51EA1010E947513D82E22
:10251000D2188FE7F82EF122F6FE0BC05EEFF522FF
:10252000D91438F4F4FE07C0F2FC05C08FEEF8228F
:1025300002C01D2D01C0192DF4FE0DC0FE01ED0DD0
:10254000F11D8081803319F499EEF92208C01F5FD4
:10255000F2FE05C003C08F2D867809F01F5F0F2D96
:10256000F3FC14C0F0FE0FC01E1510F09D2C0BC024
:102570009D2C9E0C911A1E2D06C080E290E0B301A6
:102580000E9449131F5F1E15C0F304C01E1510F4EE
:10259000E11A01C0EE2404FF0FC080E390E0B30114
:1025A0000E94491302FF1DC001FD03C088E790E0AF
:1025B0000EC088E590E00BC0802F867891F001FF77
:1025C00002C08BE201C080E2F7FC8DE290E0B30133
:1025D0000E94491306C080E390E0B3010E944913B2
:1025E0009A94D914C0F3DA94F101ED0DF11D8081B4
:1025F00090E0B3010E944913DD20A9F706C080E2F4
:1026000090E0B3010E944913EA94EE20C1F743CE53
:10261000F30166817781CB012B96E2E10C94AC0F3C
:102620000F931F93CF93DF93689F8001699F100DD5
:10263000789F100D1124C8010E94CD0FEC01009766
:1026400029F060E070E0A8010E943713CE01DF910D
:10265000CF911F910F910895FC010590615070403A
:102660000110D8F7809590958E0F9F1F0895DC017B
:1026700001C06D9341505040E0F70895FC01615056
:10268000704001900110D8F7809590958E0F9F1F94
:1026900008950F931F93CF93DF938C01EB018B81F0
:1026A00081FF1BC082FF0DC02E813F818C819D81E7
:1026B0002817390764F4E881F9810193F983E883E5
:1026C00006C0E885F985802F0995892B31F48E8124
:1026D0009F8101969F838E8302C00FEF1FEFC80179
:1026E000DF91CF911F910F910895FA01AA27283009
:1026F00051F1203181F1E8946F936E7F6E5F7F4FCF
:102700008F4F9F4FAF4FB1E03ED0B4E03CD0670F4A
:10271000781F891F9A1FA11D680F791F8A1F911D9D
:10272000A11D6A0F711D811D911DA11D20D009F4ED
:1027300068943F912AE0269F11243019305D31932F
:10274000DEF6CF010895462F4770405D4193B3E018
:102750000FD0C9F7F6CF462F4F70405D4A3318F0BF
:10276000495D31FD4052419302D0A9F7EACFB4E070
:10277000A6959795879577956795BA95C9F7009728
:102780006105710508959B01AC010A2E06945795C9
:10279000479537952795BA95C9F7620F731F841F20
:1027A000951FA01D089510E0CAE6D0E004C0FE0108
:1027B0000E94C90F2296CC36D107C9F7F894FFCFF3
:1027C0005265666C656374005072657373204200D5
:1027D0002564000102080E0F10111220009501005F
:0227E0000000F7
:00000001FF
